:020000040000FA
:100000000C9473010C949B010C949B010C949B0128
:100010000C949B010C949B010C949B010C949B01F0
:100020000C949B010C949B010C949B010C949B01E0
:100030000C949B010C949B010C949B010C949B01D0
:100040000C949D1E0C949B010C946B1E0C94451EED
:100050000C949B010C949B010C949B010C949B01B0
:100060000C94E71E0C949B0100407A10F35A00A0F8
:10007000724E18090010A5D4E80000E87648170071
:1000800000E40B54020000CA9A3B000000E1F505B1
:10009000000080969800000040420F000000A086FB
:1000A00001000000102700000000E803000000002D
:1000B0006400000000000A000000000001000000D1
:1000C00000002C76D888DC674F0823DFC1DFAE59EB
:1000D000E1B1B796E5E3E453C63AE651997696E87E
:1000E000E6C28426EB898C9B62ED407C6FFCEFBC02
:1000F0009C9F40F2BAA56FA5F490055A2AF75C932D
:100100006B6CF9676DC11BFCE0E40D47FEF520E662
:10011000B500D0ED902E0300943577050080841E45
:10012000080000204E0A000000C80C333333330FA0
:10013000986E12831141EF8D2114893BE65516CF3D
:10014000FEE6DB18D1844B381BF77C1D901DA4BB49
:10015000E424203284725E228100C9F124ECA1E5FE
:100160003D271F1C1F1E1F1E1F1F1E1F1E1F7C3C06
:100170003E5E2B3D3F2F5B5D3B2C2A225C00000046
:100180000000250028002B00005EBCE2613FDD83FB
:10019000C29C7E20A3FD1F419DC3217FFCA2401E67
:1001A0005F01E3BD3E6082DC237D9FC1421CFEA057
:1001B000E1BF5D0380DE3C62BEE0025CDF81633D47
:1001C0007C22C09E1D43A1FF4618FAA427799BC537
:1001D00084DA3866E5BB5907DB856739BAE4065827
:1001E0001947A5FB7826C49A653BD987045AB8E617
:1001F000A7F91B45C6987A24F8A6441A99C7257B07
:100200003A6486D85B05E7B98CD2306EEDB3510FF6
:100210004E10F2AC2F7193CD114FADF3702ECC92E6
:10022000D38D6F31B2EC0E50AFF1134DCE90722CD6
:100230006D33D18F0C52B0EE326C8ED0530DEFB1C6
:10024000F0AE4C1291CF2D73CA947628ABF51749B6
:100250000856B4EA6937D58B5709EBB536688AD4A6
:1002600095CB2977F4AA4816E9B7550B88D6346A96
:100270002B7597C94A14F6A8742AC896154BA9F786
:10028000B6E80A54D7896B3500030205000305015F
:100290000406020400000000240027002A000000D9
:1002A0000008000201000003040700000000000035
:1002B00000000000000023002600290004040404BC
:1002C0000404040402020202020203030303030300
:1002D00001020408102040800102040810200102DD
:1002E00004081020062011241FBECFEFD8E0DEBF87
:1002F000CDBF12E0A0E0B1E0E4E0FCE502C0059073
:100300000D92AA35B107D9F726E0AAE5B2E001C0FF
:100310001D92AD39B207E1F711E0C3E7D1E004C0A7
:100320002197FE010E94EC2BC237D107C9F70E942A
:10033000BE200C94002E0C940000CF93DF93FC01A0
:100340008281938190938106809380068481958138
:10035000A681B7818093820690938306A09384063A
:10036000B093850680859185A285B38580938606A6
:1003700090938706A0938806B0938906DF011C96A8
:10038000CF014996CAE8D6E02D912993A817B9075D
:10039000D9F7818D928D90939806809397068EE77A
:1003A00096E0DF91CF910895FC01908190539A30AF
:1003B00008F090E0818180532AE0929F800D112403
:1003C00008958091C0029091C102891B990B0895F4
:1003D00008950895AF92BF92CF92DF92EF92FF926D
:1003E0000F931F93CF93DF936C017B018B01040F5D
:1003F000151FEB015E01AE18BF08C017D10759F0F9
:100400006991D601ED91FC910190F081E02DC6013A
:100410000995892B79F7C501DF91CF911F910F9134
:10042000FF90EF90DF90CF90BF90AF900895FC01C8
:10043000538D448D252F30E0842F90E0821B930B49
:10044000541710F0CF96089501970895FC01918DEF
:10045000828D981761F0A28DAE0FBF2FB11D5D96F2
:100460008C91928D9F5F9F73928F90E008958FEF94
:100470009FEF0895FC01918D828D981731F0828D48
:10048000E80FF11D858D90E008958FEF9FEF08959F
:10049000FC01918D228D892F90E0805C9F4F821B03
:1004A00091098F739927089587E695E00E94480285
:1004B00021E0892B09F420E0822F089580E090E06C
:1004C000892B29F00E94540281110C940000089598
:1004D000FC01A48DA80FB92FB11DA35ABF4F2C91B9
:1004E000848D90E001968F739927848FA689B789B0
:1004F0002C93A089B1898C91837080648C93938DA7
:10050000848D981306C00288F389E02D80818F7D49
:1005100080830895EF92FF920F931F93CF93DF9301
:10052000EC0181E0888F9B8D8C8D98131AC0E8892F
:10053000F989808185FF15C09FB7F894EE89FF89FE
:100540006083E889F98980818370806480839FBF9C
:1005500081E090E0DF91CF911F910F91FF90EF909C
:100560000895F62E0B8D10E00F5F1F4F0F731127AC
:10057000E02E8C8D8E110CC00FB607FCFACFE889E7
:10058000F989808185FFF5CFCE010E946802F1CF05
:10059000EB8DEC0FFD2FF11DE35AFF4FF0829FB75B
:1005A000F8940B8FEA89FB8980818062CFCFCF934B
:1005B000DF93EC01888D8823B9F0AA89BB89E8898B
:1005C000F9898C9185FD03C0808186FD0DC00FB631
:1005D00007FCF7CF8C9185FFF2CF808185FFEDCFAF
:1005E000CE010E946802E9CFDF91CF910895833058
:1005F00081F028F4813099F08230A9F00895873095
:10060000A9F08830C9F08430B1F4809180008F7DEA
:1006100003C0809180008F7780938000089584B517
:100620008F7784BD089584B58F7DFBCF8091B00016
:100630008F778093B00008958091B0008F7DF9CFBF
:100640001F93CF93DF93282F30E0F901E256FD4F3F
:100650008491F901E053FD4FD491F901E454FD4F29
:10066000C491CC23A9F0162F81110E94F702EC2F20
:10067000F0E0EE0FFF1FE258FE4FA591B4918FB747
:10068000F894EC91111108C0D095DE23DC938FBF54
:10069000DF91CF911F910895DE2BF8CFCF93DF9399
:1006A00090E0FC01E053FD4F249184549D4FFC01E8
:1006B00084918823D1F090E0880F991FFC01EC56BB
:1006C000FD4FA591B491FC01E258FE4FC591D49124
:1006D00061110EC09FB7F8948C91E22FE0958E23A4
:1006E0008C932881E223E8839FBFDF91CF91089507
:1006F0008FB7F894EC91E22BEC938FBFF6CF3FB716
:10070000F8948091B8029091B902A091BA02B09188
:10071000BB0226B5A89B05C02F3F19F00196A11D6D
:10072000B11D3FBFBA2FA92F982F8827BC01CD013B
:10073000620F711D811D911D42E0660F771F881F9A
:10074000991F4A95D1F708958F929F92AF92BF92C9
:10075000CF92DF92EF92FF924B015C010E947F03E8
:100760006B017C010E947F036C197D098E099F0932
:10077000683E734081059105A8F321E0821A910833
:10078000A108B10888EEC80E83E0D81EE11CF11C58
:1007900081149104A104B10429F7FF90EF90DF9038
:1007A000CF90BF90AF909F908F9008952FB7F894FF
:1007B0006091B4027091B5028091B6029091B70237
:1007C0002FBF08956F927F928F929F92AF92BF92A8
:1007D000CF92DF92EF92FF920F931F93CF93DF930D
:1007E0000E94D60300916305109164052091650570
:1007F000309166056B017C01C01AD10AE20AF30A46
:1008000020915F05309160052130310509F074C0F9
:1008100007EE13E020E030E0C016D106E206F30652
:1008200008F45BC06093630570936405809365056D
:100830009093660580E090E0A0ECBFE780935605BA
:1008400090935705A0935805B093590580935A0586
:1008500090935B05A0935C05B0935D0560E080918B
:100860005E050E94200361E080915E050E944E03B8
:1008700080915F0590916005019709F042C062E1A7
:1008800070E080E090E00E94A40360E080915E054B
:100890000E944E0361E080915E050E9420034DEFAF
:1008A000B42ED0E0C0E0F12CE12C10E000E00E947A
:1008B0007F03762E8B2D8170882EC82E880FDD0841
:1008C0000E947F03962E97188AE5891510F581E01E
:1008D00090E09093620580936105DF91CF911F9125
:1008E0000F91FF90EF90DF90CF90BF90AF909F90CF
:1008F0008F907F906F9008950FEC17E020E030E02C
:100900008BCF8BE79CE00197F1F7BFCF7801B394D1
:10091000CECF20915E0530E0F901E256FD4F849183
:10092000F901E053FD4FA490F901E454FD4F6490A8
:10093000662009F439C081110E94F702E62DF0E02B
:10094000EE0FFF1FEE54FD4FA591B491EC91AE2236
:1009500031E020E009F430E0832F922FC816D90649
:1009600009F4AECFB7FC0FC0882031F0000F111F83
:100970008EE1891508F401608FE1B81609F4C6CF3D
:100980008FE3B816A1F08FE4B812C1CF6F2D77278F
:10099000CD2EDD248C2F8E0D860F8C0D8017110629
:1009A00051F082E090E095CF90E080E0D7CFE80171
:1009B00010E000E0ACCF80915F0590916005019759
:1009C000F1F490E080E00E94222960935A05709330
:1009D0005B0580935C0590935D05B60190E080E037
:1009E0000E942229609356057093570580935805FD
:1009F0009093590510926205109261056ECFB70170
:100A000090E080E00E9422292DEC3CEC4CEC5DE370
:100A10000E94832960935A0570935B0580935C055F
:100A200090935D05D7FF04C0DF77D195C195D109BB
:100A3000BE01DD0F880B990B0E9424292DEC3CECA4
:100A40004CEC5DE30E948329CDCF20919002260FCC
:100A50003327331F21323105ECF420912C05FC01A2
:100A600090E080E0243069F082E00895A091900247
:100A70002191AC0140595D4FA40FB52FB11D2C93AE
:100A80000196861798F380919002680F6093900208
:100A900080E0089581E0089510922C0581E0809314
:100AA0002B051092060561E082E10E94200361E0BF
:100AB00083E10E942003E9EBF0E080818E7F808358
:100AC00080818D7F808388E48093B80085E4809363
:100AD000BC000895CF93DF9391E090936F02882339
:100AE000B9F0C091B800D091BA008091BC008A7B67
:100AF0008093BC0060E082E10E94200360E083E11B
:100B00000E9420030E944C05D093BA00C093B80005
:100B1000DF91CF910895CF92DF92EF92FF920F93E2
:100B20001F93CF93DF93D091550581E0D13208F028
:100B30009CC0C09154050E947F036B017C01809191
:100B40002C0581116CC082E080932C0581E080939C
:100B50002B058FEF80932A0510922905D093280545
:100B6000A4E3B5E0E8E0F5E080E0D8138DC0109292
:100B7000070580910705CC0FC82BC093070580910E
:100B80000605813009F084C0109206050E947F039B
:100B90006B017C01809107058093BB0080912E053D
:100BA00090912F05A0913005B0913105892B8A2BAA
:100BB0008B2BA1F00E947F0300912E0510912F0531
:100BC00020913005309131056C197D098E099F09FE
:100BD000061717072807390708F442C08091BC00A0
:100BE00083FDD8CF85EC8093BC000E947F036B010E
:100BF0007C0180912C05823009F44CC080912A053B
:100C00008F3F09F469C080912A05803209F466C0DB
:100C100080912A05803309F463C084E026C0809166
:100C20002E0590912F05A0913005B0913105892BAB
:100C30008A2B8B2B09F483CF0E947F0300912E0512
:100C400010912F0520913005309131056C197D09E7
:100C50008E099F09061717072807390708F06FCF75
:100C600080912D050E946A0585E01092330510924F
:100C7000550510923205DF91CF911F910F91FF9092
:100C8000EF90DF90CF9008959D9191938F5F6DCFFE
:100C900085EEA9CF80912E0590912F05A09130056A
:100CA000B0913105892B8A2B8B2B09F4A2CF0E949E
:100CB0007F0300912E0510912F0520913005309172
:100CC00031056C197D098E099F090617170728073A
:100CD000390708F08ECFC4CF80E0C7CF82E0C5CF00
:100CE00083E0C3CFCF92DF92EF92FF920F931F93D7
:100CF000CF93DF93D82FC62F613208F098C00E949F
:100D00007F036B017C0180912C0581116BC081E018
:100D100080932C0580932B059FEF90932A051092CA
:100D200029059C0F9093280580930705809107055E
:100D3000DD0FD82BD093070580910605813009F08F
:100D400078C0109206050E947F036B017C018091A0
:100D500007058093BB0080912E0590912F05A091EF
:100D60003005B0913105892B8A2B8B2BA1F00E9485
:100D70007F0300912E0510912F05209130053091B1
:100D800031056C197D098E099F0906171707280779
:100D9000390708F448C08091BC0083FDD8CF85ECAA
:100DA0008093BC000E947F036B017C0180912C0525
:100DB000813009F440C0809129058C1710F4C0914E
:100DC0002905E8E0F5E0A6EEB4E080E08C1355C01C
:100DD0008C2FDF91CF911F910F91FF90EF90DF90BB
:100DE000CF90089580912E0590912F05A091300508
:100DF000B0913105892B8A2B8B2B09F484CF0E946B
:100E00007F0300912E0510912F0520913005309120
:100E100031056C197D098E099F09061717072807E8
:100E2000390708F070CF80912D050E946A05C0E057
:100E3000CFCF85EEB5CF80912E0590912F05A09153
:100E40003005B0913105892B8A2B8B2B09F4AECF5D
:100E50000E947F0300912E0510912F0520913005EF
:100E6000309131056C197D098E099F090617170706
:100E70002807390708F09ACFD6CF91919D938F5FBD
:100E8000A5CF0895E091C1028091C002E81730F427
:100E9000F0E0EA51FB4F808190E008958FEF9FEFE3
:100EA00008959091C1028091C0022FEF3FEF9817F3
:100EB00048F4E92FF0E0EA51FB4F208130E09F5FDA
:100EC0009093C102C9010895CF92DF92EF92FF92F1
:100ED0000F931F93CF93DF937C01CB018A01209165
:100EE0003205222389F0EB016B01C40ED51ECC150F
:100EF000DD0569F06991D701ED91FC910190F081D8
:100F0000E02DC7010995F3CF642F0E942505C80184
:100F1000DF91CF911F910F91FF90EF90DF90CF90D5
:100F20000895CF93DF931F92CDB7DEB769832091E9
:100F300032052223F9F020915505203258F021E0A6
:100F400030E0FC013383228390E080E00F90DF915A
:100F5000CF91089580913305E82FF0E0EC5CFA4FD3
:100F6000998190838F5F809333058093550581E04D
:100F700090E0ECCF61E0CE0101960E942505F7CF0D
:100F8000682F84E096E00C949107FC01248131E005
:100F90003093320520935405109233051092550575
:100FA0008385862B90E00E94C0070C948B0590E00F
:100FB00080E008958FB7F894809169028FBF0895FB
:100FC00061E0FC0184810E9420038091680281110C
:100FD0001092680208958EBD00000DB407FEFDCF8B
:100FE0008EB508958FEF0C94EB070F931F93CF935B
:100FF000DF93EC010E94D6038B010E94F2078F3F22
:1010000069F00E94D603601B710B6C177D07A8F373
:1010100080E0DF91CF911F910F91089581E0F9CF8A
:101020008CBD9DBD0895CF93DF93EC018091680244
:10103000811109C081E0809368028091100690912F
:1010400011060E94100860E08C81DF91CF910C9412
:1010500020038F929F92AF92BF92FF920F931F93A4
:10106000CF93DF93EC01F62E49015A018E8188233C
:1010700089F08F8198859C012F5F3F4F38872F83A0
:101080008230924018F40E94F207F3CFCE010E9402
:10109000E0071E82CE010E9413088CE291E00E94BC
:1010A000F5078F2D80640E94EB0708E110E0D50161
:1010B000C401002E04C0B695A795979587950A940C
:1010C000D2F70E94EB0708501109083F8FEF18076D
:1010D00071F785E9FF2021F028E087E8F2128FEF11
:1010E0000E94EB0710E00E94F2078A8787FF04C086
:1010F0001F3F11F01F5FF7CFDF91CF911F910F912D
:10110000FF90BF90AF909F908F900895AF92BF9245
:10111000CF92DF92EF92FF920F931F93CF93DF93C3
:10112000EC016901C801820F931F8130924050F594
:101130008E81882379F088819981AA81BB81841767
:101140009507A607B70731F48F819885C816D90689
:1011500008F042C0488359836A837B838B85833040
:1011600039F089E0440F551F661F771F8A95D1F724
:101170009A01AB0161E1CE010E942908882389F020
:1011800083E08D83CE010E94E00780E0DF91CF9164
:101190001F910F91FF90EF90DF90CF90BF90AF9095
:1011A00008950E94D6035B010E94F2078A878F3F51
:1011B00069F40E94D6036A197B096D327140A0F36D
:1011C0008FE08D83CE010E94E007DCCF8E3F89F453
:1011D00018861F8281E08E838F8198858C159D05EE
:1011E00050F40E94F2078F819885019698878F832B
:1011F000F3CF8DE0E6CF6701E00EF11E0E94F2070B
:10120000F60181936F01EE15FF05C1F78F81988577
:10121000080F191F18870F838985882319F0011576
:101220001240A0F08E81882389F08F8198859C01DF
:101230002F5F3F4F38872F838230924018F40E94EF
:10124000F207F3CFCE010E94E0071E8281E09ECF1D
:10125000CF92DF92EF92FF920F93CF93DF93EC0147
:10126000690182E1411551056105710599F08B8590
:10127000833039F089E0440F551F661F771F8A9528
:10128000D1F79A01AB0168E1CE010E9429088823B9
:1012900019F084E08D832DC08EEF0E94EB0776015C
:1012A0008EEFD81AF70181917F010E94EB07EC14B1
:1012B000FD04C1F78FEF0E94EB078FEF0E94EB0751
:1012C0000E94F2078A878F71853071F4011116C070
:1012D000CE010E94E00781E0DF91CF910F91FF9056
:1012E000EF90DF90CF90089581E18D83CE010E9431
:1012F000E007CE010E94E00780E0EECF88E592E0B3
:101300000E94F507811102C085E1C4CF20E030E0E2
:10131000A9016DE0CE010E942908882311F084E123
:10132000B9CF0E94F2078111FACFD2CF0F9340912B
:101330006B0250916C0260916D0270916E024115CA
:1013400051056105710599F0082F24EE32E0809176
:10135000E4049091E5040E942809882349F0109242
:101360006B0210926C0210926D0210926E0281E07C
:101370000F9108950F93CF93C82F80916A02811126
:1013800005C0C1E08C2FCF910F91089540910001CD
:101390005091010160910201709103010C2F24EE24
:1013A00032E08091E4049091E5040E9428098111C3
:1013B00002C0C0E0E7CFCC2321F381E00E94960970
:1013C0008823B9F310926A02DDCF8F929F92AF9279
:1013D000BF92EF92FF920F931F93CF934B015C014B
:1013E000C42F8091000190910101A0910201B09160
:1013F000030188159905AA05BB0551F181E00E94FA
:10140000BA0981110BC080E0CF911F910F91FF901D
:10141000EF90BF90AF909F908F90089584EEE82E4C
:1014200082E0F82E00E012E030E020E0B501A401F7
:101430008091E4049091E5040E948608882319F3C2
:101440008092000190920101A0920201B0920301EA
:1014500040916A024C2B40936A0281E0D5CF8F9273
:101460009F92AF92BF92CF92DF92EF92FF92CF9373
:1014700022E136E03093E5042093E404882309F464
:101480006DC040E060E070E0CB010E94E509811191
:101490000BC080E0CF91FF90EF90DF90CF90BF9096
:1014A000AF909F908F9008958091A2048F7789F7D5
:1014B0008091AE049091AF04A091B004B091B104BA
:1014C00084369105A105B10520F3C090AA04D090FF
:1014D000AB04E090AC04F090AD04C114D104E1047D
:1014E000F104B9F240E0C701B6010E94E509882382
:1014F00081F28091EF029091F0028115924049F6BD
:10150000A091F402AA2329F26091F2027091F302F1
:101510006115710509F4BDCF2091F102222309F470
:10152000B8CFA09330062093220690E080E030E010
:10153000E1E0F0E0C82FAF01082E02C0440F551FB4
:101540000A94E2F72417350769F041E0480F019645
:101550008930910579F740932B069BCFC12CD12C74
:101560007601C0CF80932B062091FA023091FB02C6
:1015700050E040E02115310541F4209108033091FD
:10158000090340910A0350910B03209323063093E3
:101590002406409325065093260646015701860EE1
:1015A000971EA11CB11C8092310690923206A09227
:1015B0003306B0923406E091F502F091F602F09312
:1015C0003706E0933606B0E00E94412ADC01CB01E9
:1015D000880D991DAA1DBB1D80933806909339066E
:1015E000A0933A06B0933B0625E0EE0FFF1F2A9525
:1015F000E1F7E150FE4FEF2FFF27E6958E0F9F1F7B
:10160000A11DB11D80932C0690932D06A0932E064C
:10161000B0932F068090F7029090F802B12CA12C85
:101620008114910441F48090040390900503A090EC
:101630000603B0900703C81AD90AEA0AFB0AC80CC5
:10164000D91CEA1CFB1C04C0F694E794D794C794F9
:10165000CA95D2F7C0922706D0922806E0922906B2
:10166000F0922A0685EFC8168FE0D806E104F1044F
:1016700028F48CE08093350681E00CCF80E125EFE3
:10168000C2162FEFD206E104F104A0F380911003FB
:1016900090911103A0911203B09113038093380627
:1016A00090933906A0933A06B0933B0680E2E2CFCE
:1016B0004F925F926F927F928F929F92AF92BF9262
:1016C000CF92DF92EF92FF920F931F93CF93DF930E
:1016D000EC01423051056105710590F480E0DF9125
:1016E000CF911F910F91FF90EF90DF90CF90BF901F
:1016F000AF909F908F907F906F905F904F900895E4
:1017000089859A85AB85BC850196A11DB11D84177D
:101710009507A607B70710F3CB88DC88ED88FE880D
:101720008F89803109F042C0BB27A72F962F852FC4
:10173000480159012A013B01C80ED91EEA1EFB1EB1
:101740008091000190910101A0910201B0910301EB
:10175000C816D906EA06FB0699F58F898031C1F5CE
:10176000B301A201552766277727440F551F4C5117
:101770005D4FFA019182808280916A02816080933C
:101780006A028A89823080F08D819E81AF81B8851E
:101790008C0D9D1DAE1DBF1D80936B0290936C023E
:1017A000A0936D02B0936E0281E099CFDB01CA0174
:1017B000E7E0B695A79597958795EA95D1F7B8CFC5
:1017C00040E0C701B6010E94E5098111C6CF86CF6E
:1017D000B301A2014F77552766277727440F551F7E
:1017E000440F551F4C515D4FFA0180829182A282B5
:1017F000B382C2CF8F929F92AF92BF92CF92DF926D
:10180000EF92FF920F931F93CF93DF93FC0181859B
:101810009285A385B4850196A11DB11D84179507F6
:10182000A607B70770F480E0DF91CF911F910F9169
:10183000FF90EF90DF90CF90BF90AF909F908F90F0
:10184000089583889488A588B6888789803189F52A
:10185000BB27A72F962F852FE9016A017B018F01F6
:10186000BC01CD01680D791D8A1D9B1D8090000172
:1018700090900101A0900201B09003018616970696
:10188000A806B90601F5F8018789803111F5DD2434
:10189000EE24FF24F601EE0FFF1FEC51FD4F808177
:1018A0009181B0E0A0E088839983AA83BB8381E023
:1018B000BBCFDB01CA01C7E0B695A7959795879581
:1018C000CA95D1F7C9CF40E00E94E5098111DBCF6D
:1018D000AACFE894C7F8DD24EE24FF24F601EE0F2A
:1018E000FF1FEE0FFF1FEC51FD4F80819181A28100
:1018F000B381BF70D8CF4F925F926F927F92AF92B9
:10190000BF92CF92DF92EF92FF920F931F93CF93EC
:10191000DF9300D000D0CDB7DEB78C0149835A8366
:101920006B837C835901C12CD12C7601412C82E040
:10193000582E612C712C49815A816B817C819E01CA
:101940002F5F3F4FC8010E94FA0B882339F1F8013D
:101950008585A301920104C0220F331F441F551F28
:101960008A95D2F7DA01C901C80ED91EEA1EFB1EFC
:1019700049815A816B817C818789803111F188EF9F
:101980009FEFAFEFBFE0481759076A077B0798F250
:10199000F501C082D182E282F38281E00F900F9044
:1019A0000F900F90DF91CF911F910F91FF90EF90CB
:1019B000DF90CF90BF90AF907F906F905F904F90EF
:1019C000089588EF9FEFA0E0B0E0DDCFCF93DF93E5
:1019D000FC012581222321F080E0DF91CF91089541
:1019E000EC0180913506803159F582E08583178AB4
:1019F000108E118E128E8091360690913706B0E0CF
:101A0000A0E025E0880F991FAA1FBB1F2A95D1F7D8
:101A1000838B948BA58BB68B8EE196E09C8F8B8FFE
:101A200081E08C831E821F82188619861A861B8687
:101A30001C861D861E861F86188A198A1A8ACDCF93
:101A4000803251F683E08583409138065091390603
:101A500060913A0670913B06478B508F618F728F71
:101A60009F012D5E3F4F8EE196E00E947B0C81111D
:101A7000D3CFB2CF8F929F92AF92BF92CF92DF928D
:101A8000EF92FF920F931F93CF93DF93EC018D8121
:101A900081110EC080E0DF91CF911F910F91FF90D7
:101AA000EF90DF90CF90BF90AF909F908F90089570
:101AB0000B891C892D893E890417150726073707CE
:101AC00048F34A015B01823031F48A869B86AC86FA
:101AD000BD8681E0E0CF81149104A104B10449F4F2
:101AE0001E821F82188619861A861B861C861D86F2
:101AF000F0CF0A851B852C853D85EB8DFC8D85857A
:101B000090E00996B901A801415051096109710994
:101B1000082E04C076956795579547950A94D2F795
:101B200075016401E1E0CE1AD108E108F10804C0B2
:101B3000F694E794D794C7948A95D2F7C416D5063D
:101B4000E606F70620F0012B022B032B11F58F89F7
:101B5000988DA98DBA8D8E839F83A887B9878E01B2
:101B60000A5F1F4FC114D104E104F10409F4ADCFA1
:101B70004E815F816885798598018B8D9C8D0E944F
:101B8000FA0B91E0C91AD108E108F1088111EACFF6
:101B900081CFC41AD50AE60AF70AE1CF3F924F92E5
:101BA0005F926F927F928F929F92AF92BF92CF92ED
:101BB000DF92EF92FF920F931F93CF93DF93CDB7F6
:101BC000DEB72C970FB6F894DEBF0FBECDBF5C0119
:101BD000DC015B968D909C905C9716964D905D9085
:101BE0006D907C901997411451046104710409F4BB
:101BF00068C0BFEF4B1A5B0A6B0A7B0A312CF401F9
:101C000081859285A385B4859C01AD012F5F3F4FEF
:101C10004F4F5F4F29873A874B875C87730162017B
:101C20001D821E821F821886F40181859285A385FC
:101C3000B4852D813E814F815885281739074A0781
:101C40005B0708F056C089859A85AB85BC858C15E5
:101C50009D05AE05BF0550F482E0C82ED12CE12CC5
:101C6000F12C92E0492E512C612C712C9E012F5F9A
:101C70003F4FB701A601C4010E94FA0B8823C9F1A6
:101C800089819A81AB81BC81892B8A2B8B2B09F1AD
:101C9000260137019FEF491A590A690A790A2D81ED
:101CA0003E814F8158852F5F3F4F4F4F5F4F2D83B0
:101CB0003E834F8358873FEFC31AD30AE30AF30AE0
:101CC000B3CFF40140805180628073803324339419
:101CD00096CFC414D504E604F70409F70FEF1FEFFD
:101CE0002FEF3FE0B701A601C4010E94580B8111FC
:101CF00019C080E02C960FB6F894DEBF0FBECDBFA2
:101D0000DF91CF911F910F91FF90EF90DF90CF90D7
:101D1000BF90AF909F908F907F906F905F904F900B
:101D20003F900895D50116964D915D916D917C91EE
:101D30001997411551056105710539F09701860123
:101D4000C4010E94580B8823A1F2D5011696CD92AA
:101D5000DD92ED92FC921997332051F0D701C60124
:101D60000196A11DB11DF40180839183A283B383E9
:101D7000F5018789908DA18DB28D892B8A2B8B2BB4
:101D800039F48481C78AD08EE18EF28E8068848394
:101D9000F50184818062848381E0ACCF1F93CF936F
:101DA000DF93FC0125812223D1F1162FEC018481E0
:101DB00087FF2AC0668577858089918941E00E94E6
:101DC000E509882361F1EA8980E2E89FF0011124A6
:101DD000EC51FD4F309719F18D81823040F48B89A1
:101DE0009C89AD89BE89848F958FA68FB78F8F8987
:101DF000988D938F828F8F89988DA98DBA8DB58B91
:101E0000A48B8C818F778C83111103C08C818F7E82
:101E10008C83812FDF91CF911F910C94BA0980E0C0
:101E2000DF91CF911F910895FF920F931F93CF934E
:101E3000DF93EC018D81813041F090E080E0DF9113
:101E4000CF911F910F91FF9008958C8181FFF5CF65
:101E500082FD1BC00091E4041091E504C8010E94BA
:101E600013080E94F207F82EC8010E94E0078FEFC6
:101E7000F812E3CF8C8185FF1BC060E0CE010E9489
:101E8000CE0E8C818F7D8C83D8CF4B895C896D89F8
:101E90007E898A859B85AC85BD8584179507A607B5
:101EA000B707C1F2CE010E943A0D8111D3CFC5CF41
:101EB00040916B0250916C0260916D0270916E02C4
:101EC000452B462B472B21F080E00E949609B5CF89
:101ED00080618C832A853B85317080E092E0821B93
:101EE000930BADCFCF93DF93EC0161E00E94CE0E58
:101EF000882311F01D8281E0DF91CF9108952F9208
:101F00003F924F925F926F927F928F929F92AF9289
:101F1000BF92CF92DF92EF92FF920F931F93CF93D6
:101F2000DF9300D000D01F92CDB7DEB77C015B01FC
:101F3000342E5D83DC0115968C911597813009F064
:101F4000CEC014962C9021FECAC022FCB4C0C32C73
:101F5000DD8022947FE027222094B22DB1702B2EB9
:101F6000D7011A964D915D916D917C911D97C11489
:101F7000D10409F428C15B968D919C915C97FC017A
:101F800074807A948A019B0169E0369527951795AC
:101F900007956A95D1F770228A011170711020C0DF
:101FA00001151105E9F416964D915D916D917C91A5
:101FB0001997411551056105710509F099C05796AA
:101FC0008D919D910D90BC91A02D0097A105B1051B
:101FD00009F0B0C0C7010E94CE0D882309F47FC06C
:101FE00080E092E0801B910B46018C159D0508F462
:101FF0004C01D7015B964D915C915C9716968D9143
:102000009D910D90BC91A02D0297A109B109FA01F3
:10201000258504C0880F991FAA1FBB1F2A95D2F7D8
:102020004685578560897189840F951FA61FB71F44
:102030009C01AD01270D311D411D511D29013A01A2
:10204000811432E0930609F07BC0809100019091E9
:102050000101A0910201B091030184159505A60527
:10206000B70559F48FEF9FEFDC0180930001909347
:102070000101A0930201B0930301022D9501B30168
:10208000A2018091E4049091E5040E94280988232C
:1020900031F19EEFB91AC818D908F70182859385E6
:1020A000A485B585880D991DA11DB11D82879387D3
:1020B000A487B58755CFF701438954896589768907
:1020C00082859385A485B585481759076A077B07DC
:1020D00009F43DCFC7010E943A0D811138CF81E04C
:1020E00090E0D70113969C938E93129780E007C0DF
:1020F0009E012F5F3F4F0E94FA0B811102C090E0BA
:1021000079C089819A81AB81BC81F701238D348D9F
:10211000F901278948EF5FEF60E070E0203121F09E
:1021200048EF5FEF6FEF7FE084179507A607B707CB
:1021300008F050CFF70186839783A087B18750CFEF
:102140000115110599F5D7011A964D915D916D9183
:102150007C911D9753968D919D910D90BC91A02DD2
:10216000481759076A077B0708F181E00E94BA09FE
:10217000882309F4B4CF409200015092010160928B
:1021800002017092030180916A02816080936A0269
:10219000C8018C519D4FD5019C01280D391DFC01B2
:1021A0002E173F0759F04D914193FACF41E0C301FB
:1021B000B2010E94E5098111EBCF91CF281B390BA9
:1021C000A20EB31E68CFF70183899489A589B689C9
:1021D00084179507A607B70738F48481438B548B7F
:1021E000658B768B80688483F701848183FD1AC0B8
:1021F000832D9D810F900F900F900F900F90DF9186
:10220000CF911F910F91FF90EF90DF90CF90BF90F3
:10221000AF909F908F907F906F905F904F903F9086
:102220002F90089561E0C7010E94CE0E882309F423
:1022300056CFDECFCF93DF931F92CDB7DEB7698342
:1022400041E050E0BE016F5F7F4F0E947F0F0F9013
:10225000DF91CF910895FC01DB0112968D919C9145
:102260001397938382838EE791E091838083149602
:102270008C911497848315968C9115978583169667
:102280004D915D916D917C9119974683578360873D
:1022900071871A964D915D916D917C911D97428742
:1022A0005387648775871E964D915D916D917C91E2
:1022B000519746875787608B718B52968C915297B6
:1022C000828B53964D915D916D917C915697438B86
:1022D000548B658B768B57964D915D916D917C916A
:1022E0005A97478B508F618F728F5B968D919C911F
:1022F000948F838F08950895FC01818D928D0097AE
:1023000019F061E00C94CE0E0895DC015996ED9120
:10231000FC913097B9F083899489A589B689428563
:10232000538564857585841B950BA60BB70B8115AA
:1023300020E89207A105B10538F08FEF9FE7A0E0F4
:10234000B0E0089590E080E00895DC0159968D9109
:102350009C91009739F0DC01ED91FC910480F581AE
:10236000E02D099490E080E00895CF93DF93EC0195
:10237000E98DFA8D309749F481E090E09B838A8360
:1023800090E080E0DF91CF91089513821282898DD1
:102390009A8D0E947F0FE98DFA8D22813381232B44
:1023A00059F7F0CFCF93DF931F92CDB7DEB7698394
:1023B000DC01ED91FC910280F381E02D41E050E0E1
:1023C000BE016F5F7F4F09950F90DF91CF91089508
:1023D0002F923F924F925F926F927F928F929F9235
:1023E000AF92BF92CF92DF92EF92FF920F931F9323
:1023F000CF93DF9300D01F92CDB7DEB7FC0185816C
:10240000811118C08FEF9FEF0F900F900F90DF9109
:10241000CF911F910F91FF90EF90DF90CF90BF90E1
:10242000AF909F908F907F906F905F904F903F9074
:102430002F900895848180FFE5CF43895489658971
:10244000768982859385A485B585312C212C481702
:1024500059076A077B0719F022242394312C6F0156
:102460002101CE0101963C01DF011696BB83AA83B0
:102470004114510409F4C5C0F601428553856485B1
:1024800075854A01F1E09F22D6015B968D919C9162
:102490005C978A019B01E9E036952795179507958A
:1024A000EA95D1F71596EC91E230E9F5FC01628DE1
:1024B000738D848D958D600F711F821F931FA12CCA
:1024C00022E0B22EA818B9084A145B0408F452019D
:1024D000F601248126FD04C0A114F2E0BF0671F4C8
:1024E000009100011091010120910201309103013E
:1024F000061717072807390709F05EC040E00E9459
:10250000E509882309F47ECFC4018C519D4FD30186
:102510009C012A0D3B1DFC012E173F0709F46CC0DE
:1025200041914D93F9CFDC011496BC90BA94B0223E
:102530008114910479F4B1100DC0452B462B472B23
:1025400069F5F6018789908DA18DB28D8683978379
:10255000A087B187D6015B96ED91FC915C971696AA
:102560006D917D918D919C911997625071098109AE
:102570009109258504C0660F771F881F991F2A952A
:10258000D2F70685178520893189600F711F821F58
:10259000931F6B0D711D811D911D91CFD601169654
:1025A0004D915D916D917C9119972A813B810E949B
:1025B000FA0B8111CFCF26CF730185019401AB01B6
:1025C000BC018091E4049091E5040E948608882370
:1025D00009F418CF6A0C7B1CF60182859385A485CB
:1025E000B5858A0D9B1DA11DB11D82879387A48788
:1025F000B5874A185B083CCF281B390B620E731E47
:10260000EBCF2A94232809F0FDCE898190E0FCCEFF
:10261000FC01818D928D009711F00C94E8118FEFE1
:102620009FEF08950F931F93CF93DF93EC01898D54
:102630009A8D10E000E0009799F00E94E8118C015B
:102640000F3F100769F0898D9A8DFC0142855385F3
:102650006485758541505109610971090E943A0DDF
:10266000C801DF91CF911F910F910895DC012C914A
:102670001196ED91FC91F8948181822B8183928156
:10268000322F30959323928387E090E00197F1F702
:1026900081818323818383E290E00197F1F7908128
:1026A0007894EFECF0E03197F1F7922381E009F4B0
:1026B00080E00895FC0190810180F281E02D292FB6
:1026C000209560FF14C0F8948281822382838181E7
:1026D000892B8183A3E2B0E01197F1F78281982BD7
:1026E0009283789487ED90E00197F1F70895F8943C
:1026F0008281822382838181892B8183AFEFB0E045
:102700001197F1F78281982B928378948FE090E073
:10271000EBCFDF92EF92FF920F931F93CF93DF9354
:10272000EC01D62EE42E08E010E0FF24F39461E0E3
:102730008D2D8F2109F460E0CE010E945A13FF0C09
:1027400001501109A1F7E11010C0F894E981FA8154
:1027500091818881809589238183E981FA819281A1
:1027600088818095892382837894DF91CF911F910E
:102770000F91FF90EF90DF900895EF92FF920F93EB
:102780001F93CF93DF938C017B0140E065E50E94AE
:102790008913E70188E0E80EF11C699140E0C80167
:1027A0000E948913CE15DF05C1F7DF91CF911F91EC
:1027B0000F91FF90EF900895FC0190810180F281CC
:1027C000E02DF8948181292F2095822381837894AC
:1027D0003DE743E050E0315029F1DA011197F1F77C
:1027E00080818923C1F3F89482818223828381814D
:1027F000892B81837894ABE7B7E01197F1F7F894D0
:10280000818182238183A3E1B1E01197F1F7808177
:10281000982381E009F080E07894E3E6F6E03197D0
:10282000F1F7089580E008950F931F93CF938C01E3
:10283000C62F80916706909168060E94DC1388235A
:10284000A1F0B80180916706909168060E94BD13BF
:1028500040E06C2F80916706909168060E94891372
:1028600081E0CF911F910F91089580E0FACFEF9210
:10287000FF920F931F93CF93DF9380916A0681118C
:102880001CC064EB8CE191E00E941414E090670698
:10289000F090680608E010E0C0E0D1E0C7010E94B7
:1028A00036138111CD2BDD0F01501109B9F781E0ED
:1028B000C11101C080E080936B0680916706909102
:1028C00068060E94DC13882329F16CE171E0809195
:1028D0006706909168060E94BD1340916B0681E0E7
:1028E000482764E480916706909168060E948913E6
:1028F0000E94D60360936C0670936D0680936E06FB
:1029000090936F0681E0DF91CF911F910F91FF901F
:10291000EF90089580E0F7CF6F927F928F929F9211
:10292000AF92BF92CF92DF92EF92FF920F931F93DD
:10293000CF93DF93CDB7DEB76D970FB6F894DEBFB8
:102940000FBECDBF0E94E2038091560590915705BE
:10295000A0915805B09159058093D4029093D50267
:10296000A093D602B093D7020E94E20380915A0549
:1029700090915B05A0915C05B0915D058093D002BC
:102980009093D102A093D202B093D30280E1EAE205
:10299000F1E0DE01119601900D928A95E1F70E9417
:1029A000D60300916C0610916D0620916E06309151
:1029B0006F066B017C01C01AD10AE20AF30AE091AA
:1029C0006906E950FF0BEE0FFF1FEE0FFF1F21E01E
:1029D00030E02C0F3D1FE20FF31F80809180A2801A
:1029E000B38080916B068823A1F080916706909157
:1029F00068060E943613882361F06EEB8CE191E04B
:102A00000E941414811127C063E373E988E893ECF2
:102A10008FC0C814D904EA04FB0478F76091CC0293
:102A20007091CD028091CE029091CF026D960FB63B
:102A3000F894DEBF0FBECDBFDF91CF911F910F91F4
:102A4000FF90EF90DF90CF90BF90AF909F908F90CE
:102A50007F906F90089580906706909068068E0131
:102A60000F5E1F4F7E013AE1E30EF11C680138E072
:102A7000632E712CB12CAA24A394C4010E94361396
:102A80008111BA28AA0C81E0681A7108B1F7D60141
:102A9000BD926D01AE15BF0551F799E080E09150F0
:102AA00049F0D801ED918D01E827F0E0E857FE4F9D
:102AB0008491F5CF998D9813A7CF80E1EAE3F1E0F7
:102AC000DE01119601900D928A95E1F780914A01FD
:102AD00090914B01A0914C01B0914D018A8F9B8F39
:102AE000AC8FBD8F009169060950110BF701E00F03
:102AF000F11F808169897A8902C0759567958A95E9
:102B0000E2F7072E000C880B990B0E942429F8018C
:102B1000EE0FFF1FEE0FFF1F21E030E02C0F3D1FD7
:102B2000E20FF31F20813181428153810E9483296A
:102B30006093CC027093CD028093CE029093CF022B
:102B40000E9437146BCFFB0101900020E9F7319709
:102B5000AF01461B570BDC01ED91FC910280F38124
:102B6000E02D09948F929F92AF92BF920F931F9383
:102B7000CF93DF93CDB7DEB7A1970FB6F894DEBF42
:102B80000FBECDBF19A2423008F44AE08E010F5D9E
:102B90001F4F842E912CB12CA12CA50194010E94D1
:102BA000832AE62FB901CA01EA3004F5E05DD801B5
:102BB000EE938D01232B242B252B79F790E080E0D9
:102BC000109729F0BD018BE596E00E94A315A19610
:102BD0000FB6F894DEBF0FBECDBFDF91CF911F912E
:102BE0000F91BF90AF909F908F900895E95CDFCFD9
:102BF000BC018BE596E00C94A3150F931F93CF9324
:102C0000DF93EC01FB014481558160817181E88192
:102C1000F9810280F381E02D09958C0164EA71E06D
:102C2000CE010E94A315800F911FDF91CF911F91BC
:102C30000F910895AF92BF92CF92DF92EF92FF92E1
:102C40000F931F93CF93DF93CDB7DEB76A970FB67D
:102C5000F894DEBF0FBECDBF81E08093320588E6D9
:102C600080935405109233051092550590E080E052
:102C70000E94C0070E948B0567E088E60E947206EA
:102C80001092C1028093C002811101C0FFCFCE011A
:102C900001967C0106E010E07AE0D72E84E096E011
:102CA00003301105C9F50E94510798878F830150A1
:102CB0001109F2E0EF1AF1080F3F100779F70E94AF
:102CC0008B0549815A817A0190E3E91A98EFF90A54
:102CD000F092D902E092D8020B810093DA02CD8003
:102CE000DE80C092DB028F818093DF02A984A092F4
:102CF000DC02BB84B092DD021D851093DE02C601AA
:102D00009927E2E6F1E021E02017A0F43491830F47
:102D1000911D2F5F3196F8CF0E945107982F929501
:102D20009F708F709D9D800D112490E0F701958715
:102D30008487BDCF023031F49A0123703327232BCF
:102D400009F4019697012D5C374036952795369505
:102D50002795EDE6F1E04E9FB0014F9F700D5E9F0D
:102D6000700D1124260F371F21503109280F391FEC
:102D7000A8E1B0E00E94A52A9B01AC012A0D311DFB
:102D8000411D511DACE3B0E00E94412A9B01AC0102
:102D90002B0D311D411D511D0E94412A610F711DD6
:102DA000811D911D60597A4C8249974C6093E002D5
:102DB0007093E1028093E2029093E3028CE0E8EDED
:102DC000F2E0DE011F9601900D928A95E1F78CE00A
:102DD000FE013F96AAE5B2E001900D928A95E1F7D7
:102DE000F092C502E092C4020093C602C092C702EC
:102DF000A092CB02B092CA021093C302812F6A96AE
:102E00000FB6F894DEBF0FBECDBFDF91CF911F91FB
:102E10000F91FF90EF90DF90CF90BF90AF9008950B
:102E20000F931F93CF938C01C62F0E94C5076C2F61
:102E30006460C8010E94C5076C2F6B7FC8010E94A7
:102E4000C50783EC90E00197F1F7CF911F910F91A7
:102E500008950F931F93CF93DF938C01D62FC42F28
:102E6000607F642B0E94101780E1D89FB00111246D
:102E70006C2BC801DF91CF911F910F910C9410170B
:102E8000CF93DF93CDB7DEB728970FB6F894DEBFA8
:102E90000FBECDBF98E0EEE4F1E0DE0111960190A7
:102EA0000D929A95E1F790916406961708F46FEFEA
:102EB000262F30E0220F331F41E050E04C0F5D1F02
:102EC000240F351FF9016081680F606840E08BE5D1
:102ED00096E028960FB6F894DEBF0FBECDBFDF9107
:102EE000CF910C94291740E061E08BE596E00E94B9
:102EF00029178BE39FE10197F1F7089541E00E94C4
:102F0000291781E090E008950F931F93CF93DF93EB
:102F10008B0198E0899FB0011124606440E08BE54B
:102F200096E00E942917E801085F1F4F69918BE521
:102F300096E00E947E17C017D107C1F7DF91CF91AD
:102F40001F910F9108954F925F926F927F928F928F
:102F50009F92AF92BF92CF92DF92EF92FF920F9328
:102F60001F93CF936B017C01742EAC019B010E94D7
:102F7000C72B67EA71E0811126C046015701E8942A
:102F8000B7F82FEF3FEF4FE75FE7C501B4010E94AD
:102F9000C72B81110CC02FEF3FEF4FE75FE7C50153
:102FA000B4010E941D296BEA71E0181664F02FEF3E
:102FB0003FEF4FE75FE4C701B6010E94C22B18162E
:102FC000ACF46FEA71E08BE596E0CF911F910F9121
:102FD000FF90EF90DF90CF90BF90AF909F908F9039
:102FE0007F906F905F904F900C94A3152FEF3FEF61
:102FF0004FE75FECC701B6010E941D2987FDE1CFB5
:1030000020E030E0A901C701B6010E941D2910E0AF
:1030100000E087FF0CC041E06DE28BE596E00E9486
:103020002917F7FAF094F7F8F09401E010E0C0E007
:1030300060E070E080E09FE37C1641F020E030E04B
:1030400040E251E40E94212BCF5FF6CFA701960109
:103050000E94B52A4B015C010E94932B2B013C017D
:103060004AE00E94B215080F191FCC23C9F1C30111
:10307000B2010E9422299B01AC01C501B4010E944A
:10308000B42A4B015C0141E06EE28BE596E00E94C0
:1030900029170F5F1F4FC15018F120E030E040E2C8
:1030A00051E4C501B4010E9483292B013C010E9417
:1030B000932B4B01B12CA12C4AE0C501B4010E9415
:1030C000B215080F191FC501B4010E9422299B01E6
:1030D000AC01C301B2010E94B42A4B015C01DBCFF9
:1030E000C801CF911F910F91FF90EF90DF90CF908B
:1030F000BF90AF909F908F907F906F905F904F9018
:103100000895CF92DF92EF92FF921F93CF93DF93B8
:10311000EC0180E2689FF0011124EC51FD4F938592
:10312000917161F0842F827449F080E0DF91CF913A
:103130001F91FF90EF90DF90CF900895142F6A8B2E
:103140008091000190910101A0910201B0910301D1
:103150008E879F87A88BB98BC488D588F12CE12CEA
:103160007601DD24CC24CF8AD88EE98EFA8E828D2A
:10317000938DB0E0A0E0AC01BD014C295D296E2922
:103180007F294F8B588F698F7A8F83858871B1F42F
:10319000848D958DA68DB78D8B8B9C8BAD8BBE8BC7
:1031A00081E08D831F701C831E821F821886198602
:1031B0001A861B861C861D8681E0B8CF803109F0F7
:1031C000B4CF9E012D5E3F4F8B8D9C8D0E947B0C5A
:1031D000882309F4AACF84E0E4CFCF93DF93EC01F6
:1031E00088819981009711F00E948E2C1982188293
:1031F0001D821C821B821A82DF91CF910895FC01EF
:1032000080819181009711F00C948E2C08950F937A
:103210001F93CF93DF93EC0188819981009759F038
:103220002A813B812617370730F081E0DF91CF916B
:103230001F910F9108958B016F5F7F4F0E94172D93
:10324000009759F0998388831B830A832C813D81E1
:10325000232B59F7FC011082E8CF80E0E7CFEF92F3
:10326000FF920F931F93CF93DF936115710541F484
:1032700080E0DF91CF911F910F91FF90EF90089523
:1032800041155105B1F07B01EC010C811D81040F4A
:10329000151FB8010E940719882351F3288139812D
:1032A0008C819D81B701820F931F0E94EA2D1D839F
:1032B0000C8381E0DECFEF92FF920F931F93CF93A9
:1032C000DF93CDB7DEB764970FB6F894DEBF0FBEBD
:1032D000CDBF7C01CB01BA018E010F5F1F4F22E0F1
:1032E00044E00E949326FC0101900020E9F7319709
:1032F000AF01481B590BBC01C7010E942F19811156
:1033000003C0C7010E94ED18C70164960FB6F89478
:10331000DEBF0FBECDBFDF91CF911F910F91FF9008
:10332000EF900895EF92FF920F931F93CF93DF9347
:10333000CDB7DEB728970FB6F894DEBF0FBECDBF6E
:103340007C01CB014AE08E010F5F1F4FB8010E9444
:10335000B126F80101900020E9F73197AF01401B39
:10336000510BB801C7010E942F19811103C0C70179
:103370000E94ED18C70128960FB6F894DEBF0FBE65
:10338000CDBFDF91CF911F910F91FF90EF900895E6
:10339000EF92FF920F931F93CF93DF9300D000D053
:1033A000CDB7DEB77C01862F4AE08E010F5F1F4F3D
:1033B000B80190E00E94B126F80101900020E9F7E1
:1033C0003197AF01401B510BB801C7010E942F1963
:1033D000811103C0C7010E94ED18C7010F900F9023
:1033E0000F900F90DF91CF911F910F91FF90EF9071
:1033F0000895CF93DF93EC01FB0101900020E9F7E2
:103400003197AF01461B570B0E942F19811103C042
:10341000CE010E94ED18CE01DF91CF910895EF9279
:10342000FF920F931F93CF93DF93EC017B018A01EF
:10343000BA010E94071981110BC0CE010E94ED183C
:10344000CE01DF91CF911F910F91FF90EF900895E2
:103450001D830C83B701888199810E94EA2DF0CFEA
:10346000EF92FF920F931F93CF93DF93CDB7DEB709
:1034700062970FB6F894DEBF0FBECDBF8C01CB01B3
:10348000F8011182108213821282158214824AE09E
:103490009E012F5F3F4F7901B9010E94B126F701CC
:1034A00001900020E9F73197AF014E195F09B7018C
:1034B000C8010E940F1A62960FB6F894DEBF0FBEC5
:1034C000CDBFDF91CF911F910F91FF90EF900895A5
:1034D000FC01118210821382128215821482FB0178
:1034E00001900020E9F73197AF01461B570B0C9470
:1034F0000F1A85ED8093BC0080912E0590912F05C9
:10350000A0913005B09131050796A11DB11D23E0B2
:10351000B695A795979587952A95D1F72091BC00E8
:1035200024FD03C010922C05089540912E05509162
:103530002F056091300570913105452B462B472BA7
:1035400069F30097A105B10541F025E32A95F1F74C
:1035500000000197A109B109E1CF80912D050C94DC
:103560006A053F924F925F926F927F928F929F92E5
:10357000AF92BF92CF92DF92EF92FF920F931F9381
:10358000CF93DF93CDB7DEB72B970FB6F894DEBF9E
:103590000FBECDBF7C01FE013196CE010C966F01AE
:1035A00030E23193E817F907E1F7DA0130E087E01C
:1035B0009D91B92E992309F43CC09E32F1F48A30D2
:1035C000C9F480E02B960FB6F894DEBF0FBECDBFD6
:1035D000DF91CF911F910F91FF90EF90DF90CF90EF
:1035E000BF90AF909F908F907F906F905F904F9023
:1035F0003F90089538E08AE0DBCFEEE6F1E04491B9
:10360000442321F031969413FACFDBCF8317C8F20D
:103610004FED490F4E35A8F64FE9490F4A3118F4DE
:1036200040EEB42EB90EF601E30FF11DB0823F5FFC
:10363000BFCF8981803229F2322E8B01DB015B966C
:103640008D919C915C97F701948F838F16961D92B4
:103650001D921D921C921997FB01128613861486E7
:103660001586F80182859385A485B585438954899B
:103670006589768984179507A607B70708F04DC0B6
:1036800025E0B695A795979587952A95D1F7F82FB8
:10369000FF70AF2ED80115968C91823008F491CF2F
:1036A000C8010E94E81197FD8CCFF80182859385AF
:1036B000A485B5854F96A11DB11D82879387A487E8
:1036C000B587F0E2AF9EB00111246C517D4F6115BA
:1036D000710509F476CFDB018C91882341F0853E9A
:1036E00009F062C0BB2029F0BB24B394BACFB1105B
:1036F0000EC0F701A28A8091000190910101A09172
:103700000201B091030186879787A08BB18BDB0103
:103710008C918111E9CFBB24B394832D82718231C6
:1037200009F04FCFBB2009F44DC0F70166857785BE
:103730008089918941E00E94E509882309F441CFFD
:10374000D70152968C91B0E28B9FC00111248C510D
:103750009D4F009709F435CFFC013A9626E1DF0131
:103760001D922A95E9F72BE0F601DC0101900D92FC
:103770002A95E1F721E238E2FC01318B208B40E011
:1037800058E057874687338B228B318F208F578B9A
:10379000468B81E00E94BA09882309F412CF432D99
:1037A000D70152966C910AC04BE050E0C6010E94CE
:1037B000D42D892B09F055CF432D6A2DC7010E94C6
:1037C000811800CFF8018581823009F4FACEC80152
:1037D0000E94CE0D882309F4F4CED8015B96ED91BA
:1037E000FC915C9716968D909D90AD90BC9019972A
:1037F000B2E08B1A9108A108B108858504C0880C35
:10380000991CAA1CBB1C8A95D2F786859785A0892E
:10381000B189880E991EAA1EBB1E84812401350120
:10382000480E511C611C711C84149504A604B70435
:1038300009F1E1E04E1A51086108710881E00E9427
:10384000BA09882309F4BDCEE4EEF2E0119284EEC9
:1038500094E08E179F07D1F740920001509201012A
:10386000609202017092030180916A0281608093EC
:103870006A02DACFD8015B96ED91FC91258580E054
:1038800092E0A0E0B0E004C0880F991FAA1FBB1F00
:103890002A95D2F7F8014389548965897689840F7E
:1038A000951FA61FB71F838B948BA58BB68BD70153
:1038B00052961C9284EE92E04FCFEF92FF920F93BC
:1038C0001F93CF93DF93EC017B018A011B821A8245
:1038D00088EE93E0A0E0B0E08C839D83AE83BF834D
:1038E00086E991E0998388838DE190E00E94F22B34
:1038F0009A8F898F009779F02DE1F701DC01019013
:103900000D922A95E1F74CE050E0B801CE010C96FB
:103910000E94F12D188EDF91CF911F910F91FF9092
:10392000EF900895EF92FF920F931F93CF93DF9341
:10393000CDB7DEB7C755D1090FB6F894DEBF0FBEBD
:10394000CDBF8C011C821B828EE7E82E81E0F82E11
:10395000FA82E9821E82CE0101960E94E60CBE0127
:103960006F5F7F4FCE01CB960E942B1119A218A238
:10397000FF8EEE8E1BA221968FAD2197811121C063
:10398000F8011382128288EE93E0A0E0B0E0848315
:103990009583A683B78386E991E091838083128E15
:1039A000118E1486C801C95ADF4F0FB6F894DEBFD6
:1039B0000FBECDBFDF91CF911F910F91FF90EF9080
:1039C000089527E143EB51E0BE01655C7F4FCE01D6
:1039D0004E960E94B11A882399F2CE01CB960E948E
:1039E000720F49A95AA96BA97CA9CE014E960E94D3
:1039F0003A0DBE01625E7F4FCE0101960E942B11EF
:103A000043EB51E0BE016F5F7F4FC8010E945D1C18
:103A1000C9CF4F925F926F927F928F929F92AF9297
:103A2000BF92CF92DF92EF92FF920F931F93CF93AB
:103A3000DF93CDB7DEB7A1970FB6F894DEBF0FBE08
:103A4000CDBF2C01662E742E122F809166029091AC
:103A500067020196909367028093660261E08BE0B3
:103A60000E9440178FEB91E00E94F81565EC71E021
:103A700087E695E00E94A31564EA71E087E695E089
:103A80000E94A31562ED71E0CE014C960E94681A67
:103A90006091660270916702CE0101960E94301A11
:103AA00048A159A16C8D7D8DCE0101960E942F19E0
:103AB000811104C0CE0101960E94ED18B201CE0121
:103AC00001960E94921962ED71E00E94F919662D2B
:103AD0000E94C81962ED71E00E94F919672D0E94D9
:103AE000C81962ED71E00E94F919612F0E94C8198E
:103AF00062ED71E00E94F919602F0E94C81962ED11
:103B000071E00E94F919B701A6010E945B1962EDEC
:103B100071E00E94F919B501A4010E945B1962EDE0
:103B200071E00E94F9194CA95DA96EA97FA90E94B4
:103B30005B19BC0187E695E00E94FD15CE01019658
:103B40000E94FF18CE014C960E94FF18CE010196EC
:103B50000E94921CCE0101960E949D0162ED71E0CF
:103B6000CE014C960E94681A6091660270916702BD
:103B7000CE0101960E94301A48A159A16C8D7D8D0D
:103B8000CE0101960E942F19811104C0CE01019629
:103B90000E94ED18B201CE0101960E94921962EDC9
:103BA00071E00E94F919662D0E94C81962ED71E05A
:103BB0000E94F919672D0E94C81962ED71E00E94F8
:103BC000F919612F0E94C81962ED71E00E94F9197C
:103BD000602F0E94C81962ED71E00E94F919B701C7
:103BE000A6010E945B1962ED71E00E94F919B5010E
:103BF000A4010E945B1962ED71E00E94F9194CA9C1
:103C00005DA96EA97FA90E945B19BC018EE796E0B1
:103C10000E94FD15CE0101960E94FF18CE014C9620
:103C20000E94FF188091970690919806009761F086
:103C30000E94720F80919706909198060E948E2C98
:103C4000109298061092970668EE73E080E090E07C
:103C50000E94A4038091C9028093C802A1960FB666
:103C6000F894DEBF0FBECDBFDF91CF911F910F91B2
:103C7000FF90EF90DF90CF90BF90AF909F908F908C
:103C80007F906F905F904F9008951F920F920FB6A4
:103C90000F9211242F933F934F935F936F937F93D2
:103CA0008F939F93AF93BF93EF93FF9387E695E036
:103CB0000E946802FF91EF91BF91AF919F918F9108
:103CC0007F916F915F914F913F912F910F900FBE18
:103CD0000F901F9018951F920F920FB60F921124FC
:103CE0002F938F939F93EF93FF93E0917705F0913C
:103CF00078058081E0917D05F0917E0582FD1BC0F5
:103D00009081809180058F5F8F732091810582174C
:103D100041F0E0918005F0E0E959FA4F958F8093EA
:103D20008005FF91EF919F918F912F910F900FBE82
:103D30000F901F9018958081F4CF1F920F920FB6AD
:103D40000F9211242F933F938F939F93AF93BF9321
:103D50008091B4029091B502A091B602B091B702E1
:103D60003091B30223E0230F2D3758F50196A11DA2
:103D7000B11D2093B3028093B4029093B502A09337
:103D8000B602B093B7028091B8029091B902A091A7
:103D9000BA02B091BB020196A11DB11D8093B80279
:103DA0009093B902A093BA02B093BB02BF91AF91B6
:103DB0009F918F913F912F910F900FBE0F901F9069
:103DC000189526E8230F0296A11DB11DD2CF1F9290
:103DD0000F920FB60F9211242F933F934F935F933F
:103DE0006F937F938F939F93AF93BF93EF93FF93C3
:103DF0008091B900887F803609F44AC0F0F5883296
:103E000009F4A7C018F5803109F49BC0B8F48823E1
:103E100009F4F9C0883009F494C0FF91EF91BF9183
:103E2000AF919F918F917F916F915F914F913F9152
:103E30002F910F900FBE0F901F901895883109F4A5
:103E400088C0803251F780932A0514C0803409F469
:103E50009DC040F48033B9F38833F9F680932A0586
:103E600085ECB0C0803509F485C0883509F496C06A
:103E7000883499F60E94791AD0CF883909F48CC019
:103E800038F5883729F050F4883611F0803729F654
:103E900083E080932C051092B20257C0883809F451
:103EA0007BC0803919F0803809F0B7CF8091B20219
:103EB000803208F071C0E091B20281E08E0F8093F1
:103EC000B2028091BB00F0E0EE56FD4F80833DC012
:103ED000803B39F0E0F4803A09F479C0883A09F07F
:103EE0009CCF84E080932C05109291021092900256
:103EF000E091BE02F091BF0209958091900281117C
:103F00000FC081E0809390021092700209C0803C43
:103F100009F4A6CF883C09F4A3CF883B09F07DCFF4
:103F2000E091910281E08E0F80939102F0E0E059E0
:103F3000FD4F80818093BB0090919102809190020F
:103F400029C0809107058093BB0085EC8093BC005D
:103F500064CF9091290580912805981758F5E09134
:103F6000290581E08E0F80932905F0E0E85FFA4F84
:103F70008081E9CFE091290581E08E0F80932905AA
:103F80008091BB00F0E0E85FFA4F808390912905B3
:103F9000809128059817C8F285E8D8CFE0912905C7
:103FA00081E08E0F809329058091BB00F0E0E85FEF
:103FB000FA4F808380912B0581115CCF81E0809343
:103FC000060584EA8093BC0010922C0526CF85EC70
:103FD0008093BC0010922C058091B202803230F4A4
:103FE000E091B202F0E0EE56FD4F10826091B20215
:103FF00070E0E091BC02F091BD0282E992E0099587
:104000001092B2020ACF10922A0534CFE7E6F5E00B
:104010001382128288EE93E0A0E0B0E0848395835F
:10402000A683B7832AE531E03183208325EC30E095
:104030003587248724EC30E03787268720EC30E072
:10404000318B208B21EC30E0338B228B22EC30E063
:10405000358B248B26EC30E0378B268B118E128E1D
:10406000138E148EE4E0F6E013821282848395832B
:10407000A683B7832CE631E031832083E0E1F6E0CC
:1040800020E520831182E2E1F6E015821682118696
:10409000138642E050E060E070E044875587668711
:1040A000778713A215A614A62EE731E033A722A71F
:1040B00017A6EEE7F6E01382128284839583A68327
:1040C000B78386E991E091838083128E118E1486E6
:1040D00060E085E00E944E03E5EDF2E0E491A0E7A8
:1040E000B6E0EC93E1ECF2E0E491F0E0EE0FFF1FBC
:1040F000EE54FD4F8591949112969C938E93119757
:104100001B961C921B971D961C921D971C961C9229
:104110001C971A961C921A9719961C921997189622
:104120001C92189717961C92179716961C92169722
:1041300015961C92159714961C92149713961C9220
:104140001397E7E6F6E0B183A0831282138214820C
:104150001582168217821086EBE5F6E01382128232
:104160008AE891E09183808387E2848380E180877D
:1041700082E08187128688E083870895CF93DF935A
:10418000CDB7DEB7A1970FB6F894DEBF0FBECDBF97
:10419000789484B5826084BD84B5816084BD85B522
:1041A000826085BD85B5816085BD80916E0081602E
:1041B00080936E00109281008091810082608093D4
:1041C00081008091810081608093810080918000D6
:1041D0008160809380008091B10084608093B10001
:1041E0008091B00081608093B00080917A008460FB
:1041F00080937A0080917A00826080937A00809127
:104200007A00816080937A0080917A008068809340
:104210007A001092C1001092C1021092C002109256
:104220003305109255050E944C0588EE91E090935D
:10423000BF028093BE0289EE91E09093BD0280930D
:10424000BC021092600680916406823018F098E0FB
:104250009093600690916506992339F0813029F496
:104260008091600684608093600662E370E080E085
:1042700090E00E94A403609166068BE596E00E94A0
:10428000C50768EE73E080E090E00E94A40360E35D
:104290008BE596E00E9410170BE416E4C801019725
:1042A000F1F760E38BE596E00E941017C8010197D3
:1042B000F1F760E38BE596E00E94101783E592E04A
:1042C0000197F1F760E28BE596E00E94101760918C
:1042D0006006606240E08BE596E00E94291784E06A
:1042E0008093610640E06CE08BE596E00E94291720
:1042F0000E94731712E01093620640E066E08BE5BF
:1043000096E00E94291740E062E08BE596E00E946B
:1043100029178BE39FE10197F1F70E94731764E17E
:1043200071E080E00E9484176CE071E081E00E94FF
:10433000841764E071E082E00E94841760E080E00E
:104340000E94401784ED91E00E94F81510935E05DD
:104350001092600510925F050E94D603685B7B4057
:1043600081099109609363057093640580936505E5
:104370009093660582E090E09093600580935F05DE
:104380000E94E20380916105909162058130910560
:1043900021F49093600580935F058CE0809369061B
:1043A0000E94D6036B017C0180916706909168069C
:1043B0000E94DC13811156C00E94D6036C197D093E
:1043C0008E099F09693E73408105910568F30E943B
:1043D00037141092C10210923305109255050E94B5
:1043E0004C0588EE91E09093BF028093BE0289EE67
:1043F00091E09093BD028093BC0280ED97E0909392
:10440000D9028093D802FF24F394F092DA02F0925A
:10441000DB021092DC021092DD021092DE0286E0D6
:104420008093DF0280E795E3ADE6B8E38093E00296
:104430009093E102A093E202B093E302F09232057E
:1044400088E68093540590E080E00E94C0070E94B7
:104450008B0561E088E60E9472068093C00281119C
:1044600008C1FFCFE0916706F091680613861586B4
:10447000148612861186108617821682158214827F
:104480001382E12CD12CCC24C394009167061091A7
:104490006806D8011D969C90992029F1F801138691
:1044A00015861486F12CA8014D5F5F4FDE01119631
:1044B000055F1F4FCD015D01FA012191AF01FC01A4
:1044C0002193CF0104171507B9F7FF20D1F098E029
:1044D00080E0915009F480C0ED91E827F0E0E857C2
:1044E000FE4F8491F6CFC8010E94DC13811111C0E8
:1044F000D8011B961C921B971D961C921D971C960B
:104500001C92DE1411F0E11062CF81E080936A0604
:104510005ECF40E060EFC8010E948913812CBB246C
:10452000B394FF24F394C8010E943613A82EC80147
:104530000E943613B1E0AB1216C08130B1F5E0E451
:10454000EF1508F0ABCFD8011B969C921B979110EA
:1045500002C01D96CC92F8018381882309F49ECF76
:10456000FF24F394A0CFE82DF0E0A81214C0D801E6
:104570001B968C911B97F816B0F4AE0FBF1F1396C5
:104580008C918B2191F4A12CB8E0BF1518F0D801C3
:104590001C96FC929F2CE00FF11F83819B2D909520
:1045A000892383830AC08F11EECFF801E80DF11D36
:1045B00083818B298383AA24A3946A2DC8010E9436
:1045C0005A13F394BB0C19F48394BB24B394B7E04F
:1045D000B81508F0A8CFB3CF98859813F8CE898185
:1045E000883209F052CF6EE4C5010E94141488236A
:1045F00009F4EDCE40E060E0809167069091680696
:104600000E94891340E060E08091670690916806FF
:104610000E9489136091690669506295660F607EF9
:104620006F6140E080916706909168060E9489134F
:1046300064EBC5010E941414809067069090680690
:10464000E8E0AE2EB12C10E0C4010E9436138111B7
:104650001F29FF0CF1E0AF1AB108B1F781E0111189
:1046600001C080E080936B06111101C0E394D394E4
:104670000CCF84E096E00E945107182F0E948B0512
:1046800017FF9CC08BEE91E00E94D401182F86EE9C
:1046900091E00E94D401082F8EEE91E00E94D40197
:1046A000E82E81EF91E00E94D401D82E84EF91E0B2
:1046B0000E94D401C82EF092320510923305109258
:1046C000550590E080E00E94C0076AE0F62E8C2D30
:1046D0006F2D0E94CC2B8295807F682F690F84E01C
:1046E00096E00E9491078D2D6F2D0E94CC2B829514
:1046F000807F682F690F84E096E00E9491078E2DDD
:104700006F2D0E94CC2B8295807F682F690F84E0EB
:1047100096E00E949107212F30E02153384FE9E8BD
:10472000F2E0E491E00FFF27FF1FE20FF31FC90142
:104730009695879596958795E80FF91FC90160E9C9
:1047400071E00E94D82BE60FF71FC90164E670E004
:104750000E94D82BCF01861B970B67E070E00E9468
:10476000D82B682F811101C067E084E096E00E9499
:1047700091075AE0F52E802F6F2D0E94CC2B829549
:10478000807F682F690F84E096E00E94910762E0C5
:1047900084E096E00E949107812F6F2D0E94CC2B20
:1047A0008295807F682F690F84E096E00E949107D0
:1047B00090E080E00E94C0070E948B058091410636
:1047C000882321F08CE396E00E94720F10921D0660
:1047D00010921B0610921806109217068AE080931A
:1047E00016060E94D6038B0161E0809116060E9496
:1047F0004E0361E0809116060E942003FFB6F894F4
:104800008091C202811127C0E6ECF2E08491EAEDCA
:10481000F2E09491E82FF0E0EE0FFF1FEC56FD4F11
:10482000A591B491EC91E92321F461E08AE00E9422
:10483000200361E08AE00E944E038CB580618CBD4C
:104840008CB580648CBD61E08DE00E944E0361E018
:104850008BE00E944E038091C2028F5F8093C20260
:10486000FFBE82E58093100610921106809110061B
:10487000909111060E9410083AE0F32E8FEF0E94EB
:10488000EB07FA94F110FACF82E196E00E94130848
:1048900020E030E0A90160E082E196E00E94290872
:1048A000F82E80931C0621E0821709F4BEC10E94F5
:1048B000D603601B710B613D774050F381E080931C
:1048C000170682E196E00E94E0070E941A16CE01C8
:1048D00001960E94921CCE0101960E949D011091AA
:1048E000C7020091C602E090C402F090C50267EFD3
:1048F00071E0CE014C960E94681A1A8219821C82BD
:104900001B821E821D826C8D7D8D6115710531F0BB
:1049100048A159A1CE0101960E940F1AB701CE01FC
:1049200001960E9492196AE072E00E94F919602FC4
:104930000E94C8196AE072E00E94F919612F0E9472
:10494000C819BC018EE796E00E94FD15CE010196C4
:104950000E94FF18CE014C960E94FF181091C302CE
:104960000091CA02F090CB026CE072E0CE014C964E
:104970000E94681A1A8219821C821B821E821D8262
:104980006C8D7D8D6115710531F048A159A1CE0165
:1049900001960E940F1A6F2DCE0101960E94C81930
:1049A0006DE172E00E94F919602F0E94C8196DE153
:1049B00072E00E94F919612F0E94C819BC018EE7AC
:1049C00096E00E94FD15CE0101960E94FF18CE01CF
:1049D0004C960E94FF186FE172E08EE796E00E940D
:1049E000A31564EA71E08EE796E00E94A31580911A
:1049F000970690919806009761F00E94720F80913F
:104A00009706909198060E948E2C1092980610920C
:104A100097066CE271E080E090E00E94A4030E949F
:104A20008C148090D0029090D102A090D202B090CD
:104A3000D302C090D402D090D502E090D602F0907C
:104A4000D7028091CF028F938091CE028F93809175
:104A5000CD028F938091CC028F930091CA02209156
:104A6000CB024091C7026091C6028091C40290912E
:104A7000C5020E94091D8091CA028093C8020E944B
:104A800073170F900F900F900F9080E0682E80E0CA
:104A9000782E0E948C140E941A1660E080E00E941A
:104AA000401762E08BE596E00E947E1785E592E074
:104AB0000E94F8156091D4027091D5028091D602BF
:104AC0009091D70241E00E94A31760E08BE596E049
:104AD0000E947E178BE492E00E94F81560E089E066
:104AE0000E94401761E08BE596E00E947E1785E505
:104AF00092E00E94F8156091D0027091D1028091ED
:104B0000D2029091D30241E00E94A3178DE492E07B
:104B10000E94F81561E080E00E9440178FE492E067
:104B20000E94F8156091CC027091CD028091CE0266
:104B30009091CF0241E00E94A31760E08BE596E0E0
:104B40000E947E1782E592E00E94F8156091CB02E8
:104B50006A3030F485E592E00E94F8156091CB024E
:104B600070E090E080E04AE00E94B2158DE192E0B2
:104B70000E94F8156091CA026A3030F487E592E02D
:104B80000E94F8156091CA0270E090E080E04AE06F
:104B90000E94B2150091CA020093C9028091C80216
:104BA000A02FA81BBB0BCD01B7FF03C0919581952A
:104BB00091098A3011F0C29761F58090D0029090EF
:104BC000D102A090D202B090D302C090D402D09073
:104BD000D502E090D602F090D7028091CF028F9359
:104BE0008091CE028F938091CD028F938091CC02E1
:104BF0008F932091CB024091C7026091C6028091B1
:104C0000C4029091C5020E94091D0F900F900F9051
:104C10000F906114710409F43CCF0E945402882360
:104C200009F437CF0E94000034CF2AEA31E040E097
:104C300050E068E082E196E00E94290882FF2AC0E5
:104C4000F0921D0680911D06C12CD12CE12C90E420
:104C5000F92E823019F0C12CD12C760120E030E001
:104C6000A90167E382E196E00E942908A701960165
:104C700069E282E196E00E94290880931C0688235D
:104C8000D1F00E94D603601B710B613D774030F379
:104C900088E015CE24E0F22E0E94F20780931C06D5
:104CA000FA94F110F9CF8A3A11F082E008CE82E04E
:104CB00080931D06C7CF80911D068230D1F420E07D
:104CC00030E0A9016AE382E196E00E942908882386
:104CD00011F086E0F4CD0E94F207807C803C19F44C
:104CE00083E080931D060E94F2070E94F2070E9453
:104CF000F20782E196E00E94E00780E580931006CB
:104D00001092110681E00E942F0A882329F08CE37B
:104D100096E00E94E60CD9CD80E00E942F0A8823FD
:104D200009F4D3CDF4CFEF920F931F93CF93DF937A
:104D3000E80134E047FD34E1042E000C550B57FF29
:104D400003C0519541955109E32E022F242FAE0146
:104D50000E94D626CE01DF91CF911F910F91EF9047
:104D60000895BB274A3031F4992322F4BDE290958F
:104D700081959F4F0C94BD26BB27FB015527AA2781
:104D8000880F991FAA1FA41710F0A41B83955051D8
:104D9000B9F7A05DAA3308F0A95DA193009779F750
:104DA000B111B1931192CB010C940D29A9E0B0E09F
:104DB000ECEDF6E20C94522A6A01F22EB02E102F7E
:104DC000FBE3AF2EA01608F41BE31F5F012F27E0C3
:104DD000AE014F5F5F4F0E943528BC018981982F3B
:104DE0009970913009F43FC09BE2E1FC04C09E2D14
:104DF0009170E0FC3AC05E2D5071E82FE87083FF9F
:104E000046C084E0911101C083E0EF2DE81B8F15AF
:104E100008F0E0E0D6018E2F20E2552351F19923CE
:104E200029F0D6019C93C60101966C0196012D5F75
:104E30003F4FE2FE24C08EE4D6018C9391E411969C
:104E40009C93119712968C93D9018E2F90E2811129
:104E50001BC0E20FF32FF11D10828EEF9FEF2996FA
:104E6000ECE00C946E2A9DE2C6CF90E2C4CF2D9365
:104E700081508111FCCFCE0ED11CE0E0D0CF8EE668
:104E8000D6018C9391E6DBCF9D938150E0CF482FE4
:104E9000447082FF3DC084E0911101C083E08F1512
:104EA00010F4EF2DE81BD6018E2F20E2552309F1D7
:104EB000992329F0D6019C93C60101966C019601B5
:104EC0002D5F3F4FE2FE1BC089E4D6018C938EE438
:104ED00011968C93119786E412968C93D9018E2F9C
:104EE00090E2882309F4B5CF9D938150FACF2D939A
:104EF00081508111FCCFCE0ED11CE0E0D9CF89E6E4
:104F0000D6018C938EE611968C93119786E6E4CFAA
:104F10009B0177FF02C030E020E0A1E0B0E09111FA
:104F200002C0B0E0A0E0F9013196AE0FBF1F8B2C9C
:104F3000912CBB2009F461C05401EFEFAE1ABE0AF8
:104F4000AA0DBB1DFA161B0619F014F04F2D4A1BB3
:104F5000511188C0E3FC59C07601A42FB0E2A11121
:104F60004FC0C40ED11C992309F45BC040E0D601A8
:104F70001196F60190836D01552309F448C0012F65
:104F8000060F9A81582F507184FF03C0913309F4A2
:104F9000015010160CF047C0093008F008E0EEE2AE
:104FA000FE2E5B01A01AB1088501919481949108AD
:104FB0002F3F320729F4D601FC92F60131966F019A
:104FC0006217730794F1021713077CF5DB01A21B2C
:104FD000B30BAA24A394B12CAC0EBD1EAA0DBB1D0D
:104FE00011968C9121503109D60111962815390559
:104FF000F4F0F60180836D01DBCFB12CA12CA0CFA2
:10500000F701B1937F01A150AACF9111B0CFD60182
:10501000942F50E302C05D9391509111FCCFC40EC8
:10502000D11C40E0ACCF01E0BACF80E3DBCF621708
:10503000730731F4963388F4953311F4552369F0EE
:10504000F6018083FD01842F90E2811108C0A40F36
:10505000B11D1C9290E080E002CF81E3F1CF9193EB
:105060008150F3CF911183CF8ACF283008F027E009
:105070003327DA01990F311D87FD91600096610594
:10508000710539F432602E5F3D9330E32A95E1F7E4
:1050900008959F3F30F080387105610509F03C5F4D
:1050A0003C5F3D93913008F08068911DDF93CF9372
:1050B0001F930F93FF92EF92192F987F9695E92FE8
:1050C00096959695E90FFF27EE53FF4F99273327C3
:1050D000EE24FF24A701E70105900894079428F423
:1050E000360FE71EF81E491F511D660F771F881FD8
:1050F000991F0694A1F70590079428F4E70EF81E6F
:10510000491F561FC11D770F881F991F661F0694E0
:10511000A1F70590079428F4F80E491F561FC71FE2
:10512000D11D880F991F661F771F0694A1F7059060
:10513000079420F4490F561FC71FD81F990F661FE9
:10514000771F881F0694A9F784911095177041F076
:10515000D695C79557954795F794E7941A95C1F753
:10516000E8E6F0E068941590159135916591959178
:1051700005907FE27395E118F10A430B560BC90BBA
:10518000D009C0F7E10CF11E431F561FC91FD01DE7
:105190007EF4703311F48A95E6CFE894015030F034
:1051A000080F0AF40027021708F4202F2395022F76
:1051B0007A3328F079E37D932A95E9F710C07D933F
:1051C0002A9589F6069497956795379517951794BC
:1051D000E118F10A430B560BC90BD00998F023953F
:1051E0007E9173957A3308F070E37C932013B8F7BF
:1051F0007E9170617D9330F0839571E37D9370E3D0
:105200002A95E1F71124EF90FF900F911F91CF9114
:10521000DF91992787FD90950895DC01FC01672FA8
:1052200071917723E1F7329704C07C916D9370837D
:105230006291AE17BF07C8F308950E945F2908F472
:1052400081E00895E89409C097FB3EF4909580951D
:10525000709561957F4F8F4F9F4F9923A9F0F92F3C
:1052600096E9BB279395F695879577956795B795BA
:10527000F111F8CFFAF4BB0F11F460FF1BC06F5FA0
:105280007F4F8F4F9F4F16C0882311F096E911C0B2
:10529000772321F09EE8872F762F05C0662371F0D3
:1052A00096E8862F70E060E02AF09A95660F771FE7
:1052B000881FDAF7880F9695879597F90895990FC3
:1052C0000008550FAA0BE0E8FEEF16161706E807D0
:1052D000F907C0F012161306E407F50798F0621BF1
:1052E000730B840B950B39F40A2661F0232B242BC6
:1052F000252B21F408950A2609F4A140A6958FEFE5
:10530000811D811D08950E9496290C94072A0E94F0
:10531000F92938F00E94002A20F0952311F00C940E
:10532000F0290C94F62911240C943B2A0E94182A87
:1053300070F3959FC1F3950F50E0551F629FF001E8
:10534000729FBB27F00DB11D639FAA27F00DB11D01
:10535000AA1F649F6627B00DA11D661F829F22278A
:10536000B00DA11D621F739FB00DA11D621F839F11
:10537000A00D611D221F749F3327A00D611D231FE7
:10538000849F600D211D822F762F6A2F11249F5735
:1053900050409AF0F1F088234AF0EE0FFF1FBB1F38
:1053A000661F771F881F91505040A9F79E3F5105F7
:1053B00080F00C94F0290C943B2A5F3FE4F3983E74
:1053C000D4F3869577956795B795F795E7959F5FA1
:1053D000C1F7FE2B880F911D9695879597F9089533
:1053E00097F99F6780E870E060E008959FEF80EC98
:1053F000089500240A94161617061806090608953B
:1054000000240A9412161306140605060895092EA0
:105410000394000C11F4882352F0BB0F40F4BF2B0F
:1054200011F460FF04C06F5F7F4F8F4F9F4F08954F
:1054300057FD9058440F551F59F05F3F71F0479545
:10544000880F97FB991F61F09F3F79F0879508952A
:10545000121613061406551FF2CF4695F1DF08C049
:10546000161617061806991FF1CF86957105610566
:1054700008940895E894BB2766277727CB0197F90E
:1054800008950E94A52AA59F900DB49F900DA49FFA
:10549000800D911D112408952F923F924F925F929B
:1054A0006F927F928F929F92AF92BF92CF92DF9234
:1054B000EF92FF920F931F93CF93DF93CDB7DEB799
:1054C000CA1BDB0B0FB6F894DEBF0FBECDBF09942D
:1054D0002A88398848885F846E847D848C849B8484
:1054E000AA84B984C884DF80EE80FD800C811B8192
:1054F000AA81B981CE0FD11D0FB6F894DEBF0FBEC1
:10550000CDBFED010895A1E21A2EAA1BBB1BFD0120
:105510000DC0AA1FBB1FEE1FFF1FA217B307E40792
:10552000F50720F0A21BB30BE40BF50B661F771FEA
:10553000881F991F1A9469F76095709580959095CA
:105540009B01AC01BD01CF010895A29FB001B39FA3
:10555000C001A39F700D811D1124911DB29F700D7C
:10556000811D1124911D08955058BB27AA270E9420
:10557000CC2A0C94072A0E94F92938F00E94002AAC
:1055800020F039F49F3F19F426F40C94F6290EF418
:10559000E095E7FB0C94F029E92F0E94182A58F3B4
:1055A000BA17620773078407950720F079F4A6F508
:1055B0000C943A2A0EF4E0950B2EBA2FA02D0B0175
:1055C000B90190010C01CA01A0011124FF27591B48
:1055D00099F0593F50F4503E68F11A16F040A22F4E
:1055E000232F342F4427585FF3CF469537952795BF
:1055F000A795F0405395C9F77EF41F16BA0B620BBE
:10560000730B840BBAF09150A1F0FF0FBB1F661F04
:10561000771F881FC2F70EC0BA0F621F731F841F47
:1056200048F4879577956795B795F7959E3F08F06D
:10563000B0CF9395880F08F09927EE0F979587952F
:1056400008950E94352B0C94072A0E94002A58F0D6
:105650000E94F92940F029F45F3F29F00C94F029C9
:1056600051110C943B2A0C94F6290E94182A68F3D5
:105670009923B1F3552391F3951B550BBB27AA270B
:1056800062177307840738F09F5F5F4F220F331F45
:10569000441FAA1FA9F335D00E2E3AF0E0E832D00D
:1056A00091505040E695001CCAF72BD0FE2F29D010
:1056B000660F771F881FBB1F261737074807AB07E2
:1056C000B0E809F0BB0B802DBF01FF2793585F4F57
:1056D0003AF09E3F510578F00C94F0290C943B2A47
:1056E0005F3FE4F3983ED4F3869577956795B79539
:1056F000F7959F5FC9F7880F911D9695879597F944
:105700000895E1E0660F771F881FBB1F62177307BC
:105710008407BA0720F0621B730B840BBA0BEE1FD1
:1057200088F7E09508950E94202A88F09F5798F006
:10573000B92F9927B751B0F0E1F0660F771F881F96
:10574000991F1AF0BA95C9F714C0B13091F00E94B0
:105750003A2AB1E008950C943A2A672F782F8827C7
:10576000B85F39F0B93FCCF3869577956795B395D7
:10577000D9F73EF490958095709561957F4F8F4F46
:105780009F4F08950E945F2908F48FEF08950E94AB
:105790005F29880B990B0895991B79E004C0991F24
:1057A000961708F0961B881F7A95C9F7809508957B
:1057B000AA1BBB1B51E107C0AA1FBB1FA617B70737
:1057C00010F0A61BB70B881F991F5A95A9F7809553
:1057D0009095BC01CD010895EE0FFF1F0590F49147
:1057E000E02D09940F931F93CF93DF93823091059F
:1057F00010F482E090E0E0919B06F0919C0630E08E
:1058000020E0B0E0A0E0309799F42115310509F4CB
:105810004AC0281B390B24303105D8F58A819B8179
:105820006115710589F1FB0193838283FE0111C02B
:10583000408151810281138148175907E0F04817D0
:10584000590799F4109761F012960C9312971396DA
:105850001C933296CF01DF91CF911F910F91089544
:1058600000939B0610939C06F4CF2115310551F04F
:105870004217530738F0A901DB019A01BD01DF018E
:10588000F801C1CFEF01F9CF90939C0680939B065E
:10589000CDCFFE01E20FF31F819391932250310986
:1058A00039832883D7CF2091990630919A06232BEC
:1058B00041F4209126013091270130939A062093DC
:1058C000990620912401309125012115310541F4DB
:1058D0002DB73EB74091280150912901241B350B6B
:1058E000E0919906F0919A06E217F307A0F42E1BB7
:1058F0003F0B2817390778F0AC014E5F5F4F241734
:10590000350748F04E0F5F1F50939A064093990653
:10591000819391939FCFF0E0E0E09CCFCF93DF9312
:105920000097E9F0FC01329713821282A0919B0646
:10593000B0919C06ED0130E020E01097A1F42081A9
:105940003181820F931F2091990630919A06281772
:10595000390709F061C0F0939A06E0939906DF9148
:10596000CF910895EA01CE17DF07E8F54A815B8100
:105970009E0141155105B1F7E901FB83EA83499185
:105980005991C40FD51FEC17FD0761F480819181F7
:105990000296840F951FE901998388838281938100
:1059A0009B838A83F0E0E0E012968D919C9113979F
:1059B0000097B9F52D913C911197CD010296820F78
:1059C000931F2091990630919A062817390739F6C6
:1059D000309751F510929C0610929B06B0939A0650
:1059E000A0939906BCCFD383C28340815181840F99
:1059F000951FC817D90761F44E5F5F4F8881998161
:105A0000480F591F518340838A819B8193838283EE
:105A10002115310509F0B0CFF0939C06E0939B0669
:105A20009ECFFD01DC01C0CF13821282D7CFB0E040
:105A3000A0E0EDE1FDE20C944E2A8C01009751F4B8
:105A4000CB010E94F22B8C01C801CDB7DEB7E0E19B
:105A50000C946A2AFC01E60FF71F9C0122503109C1
:105A6000E217F30708F49DC0D901CD91DC9111979D
:105A7000C617D70798F0C530D10530F3CE0104978B
:105A80008617970708F3C61BD70B2297C193D193AC
:105A90006D937C93CF010E948E2CD6CF5B01AC1A04
:105AA000BD0A4C018C0E9D1EA0919B06B0919C06D8
:105AB000512C412CF12CE12C109731F58091990655
:105AC00090919A068815990509F05CC0461657060C
:105AD00008F058C08091240190912501009741F46D
