:100000000C9473010C949B010C949B010C949B0128
:100010000C949B010C949B010C949B010C949B01F0
:100020000C949B010C949B010C949B010C949B01E0
:100030000C949B010C949B010C949B010C949B01D0
:100040000C94931F0C949B010C94611F0C943B1F08
:100050000C949B010C949B010C949B010C949B01B0
:100060000C94DD1F0C949B0100407A10F35A00A001
:10007000724E18090010A5D4E80000E87648170071
:1000800000E40B54020000CA9A3B000000E1F505B1
:10009000000080969800000040420F000000A086FB
:1000A00001000000102700000000E803000000002D
:1000B0006400000000000A000000000001000000D1
:1000C00000002C76D888DC674F0823DFC1DFAE59EB
:1000D000E1B1B796E5E3E453C63AE651997696E87E
:1000E000E6C28426EB898C9B62ED407C6FFCEFBC02
:1000F0009C9F40F2BAA56FA5F490055A2AF75C932D
:100100006B6CF9676DC11BFCE0E40D47FEF520E662
:10011000B500D0ED902E0300943577050080841E45
:10012000080000204E0A000000C80C333333330FA0
:10013000986E12831141EF8D2114893BE65516CF3D
:10014000FEE6DB18D1844B381BF77C1D901DA4BB49
:10015000E424203284725E228100C9F124ECA1E5FE
:100160003D271F1C1F1E1F1E1F1F1E1F1E1F7C3C06
:100170003E5E2B3D3F2F5B5D3B2C2A225C00000046
:100180000000250028002B00005EBCE2613FDD83FB
:10019000C29C7E20A3FD1F419DC3217FFCA2401E67
:1001A0005F01E3BD3E6082DC237D9FC1421CFEA057
:1001B000E1BF5D0380DE3C62BEE0025CDF81633D47
:1001C0007C22C09E1D43A1FF4618FAA427799BC537
:1001D00084DA3866E5BB5907DB856739BAE4065827
:1001E0001947A5FB7826C49A653BD987045AB8E617
:1001F000A7F91B45C6987A24F8A6441A99C7257B07
:100200003A6486D85B05E7B98CD2306EEDB3510FF6
:100210004E10F2AC2F7193CD114FADF3702ECC92E6
:10022000D38D6F31B2EC0E50AFF1134DCE90722CD6
:100230006D33D18F0C52B0EE326C8ED0530DEFB1C6
:10024000F0AE4C1291CF2D73CA947628ABF51749B6
:100250000856B4EA6937D58B5709EBB536688AD4A6
:1002600095CB2977F4AA4816E9B7550B88D6346A96
:100270002B7597C94A14F6A8742AC896154BA9F786
:10028000B6E80A54D7896B3500030205000305015F
:100290000406020400000000240027002A000000D9
:1002A0000008000201000003040700000000000035
:1002B00000000000000023002600290004040404BC
:1002C0000404040402020202020203030303030300
:1002D00001020408102040800102040810200102DD
:1002E00004081020FC2011241FBECFEFD8E0DEBF91
:1002F000CDBF12E0A0E0B1E0EEE4F4E602C005906C
:100300000D92AE36B107D9F726E0AEE6B2E001C0F5
:100310001D92AA3CB207E1F711E0C3E7D1E004C0A7
:100320002197FE010E94652DC237D107C9F70E94AF
:10033000B4210C9425320C940000CF93DF93FC0180
:10034000828193819093AE068093AD0684819581DE
:10035000A681B7818093AF069093B006A093B106B3
:10036000B093B20680859185A285B3858093B3064C
:100370009093B406A093B506B093B606DF011C9621
:10038000CF014996C7EBD6E02D912993A817B9075D
:10039000D9F7818D928D9093C5068093C4068BEA20
:1003A00096E0DF91CF910895FC01908190539A30AF
:1003B00008F090E0818180532AE0929F800D112403
:1003C00008958091D2029091D302891B990B0895D0
:1003D00008950895AF92BF92CF92DF92EF92FF926D
:1003E0000F931F93CF93DF936C017B018B01040F5D
:1003F000151FEB015E01AE18BF08C017D10759F0F9
:100400006991D601ED91FC910190F081E02DC6013A
:100410000995892B79F7C501DF91CF911F910F9134
:10042000FF90EF90DF90CF90BF90AF900895FC01C8
:10043000538D448D252F30E0842F90E0821B930B49
:10044000541710F0CF96089501970895FC01918DEF
:10045000828D981761F0A28DAE0FBF2FB11D5D96F2
:100460008C91928D9F5F9F73928F90E008958FEF94
:100470009FEF0895FC01918D828D981731F0828D48
:10048000E80FF11D858D90E008958FEF9FEF08959F
:10049000FC01918D228D892F90E0805C9F4F821B03
:1004A00091098F739927089584E995E00E94480285
:1004B00021E0892B09F420E0822F089580E090E06C
:1004C000892B29F00E94540281110C940000089598
:1004D000FC01A48DA80FB92FB11DA35ABF4F2C91B9
:1004E000848D90E001968F739927848FA689B789B0
:1004F0002C93A089B1898C91837080648C93938DA7
:10050000848D981306C00288F389E02D80818F7D49
:1005100080830895EF92FF920F931F93CF93DF9301
:10052000EC0181E0888F9B8D8C8D98131AC0E8892F
:10053000F989808185FF15C09FB7F894EE89FF89FE
:100540006083E889F98980818370806480839FBF9C
:1005500081E090E0DF91CF911F910F91FF90EF909C
:100560000895F62E0B8D10E00F5F1F4F0F731127AC
:10057000E02E8C8D8E110CC00FB607FCFACFE889E7
:10058000F989808185FFF5CFCE010E946802F1CF05
:10059000EB8DEC0FFD2FF11DE35AFF4FF0829FB75B
:1005A000F8940B8FEA89FB8980818062CFCFCF934B
:1005B000DF93EC01888D8823B9F0AA89BB89E8898B
:1005C000F9898C9185FD03C0808186FD0DC00FB631
:1005D00007FCF7CF8C9185FFF2CF808185FFEDCFAF
:1005E000CE010E946802E9CFDF91CF910895833058
:1005F00081F028F4813099F08230A9F00895873095
:10060000A9F08830C9F08430B1F4809180008F7DEA
:1006100003C0809180008F7780938000089584B517
:100620008F7784BD089584B58F7DFBCF8091B00016
:100630008F778093B00008958091B0008F7DF9CFBF
:100640001F93CF93DF93282F30E0F901E256FD4F3F
:100650008491F901E053FD4FD491F901E454FD4F29
:10066000C491CC23A9F0162F81110E94F702EC2F20
:10067000F0E0EE0FFF1FE258FE4FA591B4918FB747
:10068000F894EC91111108C0D095DE23DC938FBF54
:10069000DF91CF911F910895DE2BF8CFCF93DF9399
:1006A00090E0FC01E053FD4F249184549D4FFC01E8
:1006B00084918823D1F090E0880F991FFC01EC56BB
:1006C000FD4FA591B491FC01E258FE4FC591D49124
:1006D00061110EC09FB7F8948C91E22FE0958E23A4
:1006E0008C932881E223E8839FBFDF91CF91089507
:1006F0008FB7F894EC91E22BEC938FBFF6CF3FB716
:10070000F8948091CA029091CB02A091CC02B09152
:10071000CD0226B5A89B05C02F3F19F00196A11D5B
:10072000B11D3FBFBA2FA92F982F8827BC01CD013B
:10073000620F711D811D911D42E0660F771F881F9A
:10074000991F4A95D1F708958F929F92AF92BF92C9
:10075000CF92DF92EF92FF924B015C010E947F03E8
:100760006B017C010E947F036C197D098E099F0932
:10077000683E734081059105A8F321E0821A910833
:10078000A108B10888EEC80E83E0D81EE11CF11C58
:1007900081149104A104B10429F7FF90EF90DF9038
:1007A000CF90BF90AF909F908F9008952FB7F894FF
:1007B0006091C6027091C7028091C8029091C902EF
:1007C0002FBF08956F927F928F929F92AF92BF92A8
:1007D000CF92DF92EF92FF920F931F93CF93DF930D
:1007E0000E94D603009190051091910520919205E9
:1007F000309193056B017C01C01AD10AE20AF30A19
:1008000020918C0530918D052130310509F074C09F
:1008100007EE13E020E030E0C016D106E206F30652
:1008200008F45BC0609390057093910580939205E6
:100830009093930580E090E0A0ECBFE78093830560
:1008400090938405A0938505B093860580938705D2
:1008500090938805A0938905B0938A0560E0809104
:100860008B050E94200361E080918B050E944E035E
:1008700080918C0590918D05019709F042C062E14D
:1008800070E080E090E00E94A40360E080918B051E
:100890000E944E0361E080918B050E9420034DEF82
:1008A000B42ED0E0C0E0F12CE12C10E000E00E947A
:1008B0007F03762E8B2D8170882EC82E880FDD0841
:1008C0000E947F03962E97188AE5891510F581E01E
:1008D00090E090938F0580938E05DF91CF911F91CB
:1008E0000F91FF90EF90DF90CF90BF90AF909F90CF
:1008F0008F907F906F9008950FEC17E020E030E02C
:100900008BCF8BE79CE00197F1F7BFCF7801B394D1
:10091000CECF20918B0530E0F901E256FD4F849156
:10092000F901E053FD4FA490F901E454FD4F6490A8
:10093000662009F439C081110E94F702E62DF0E02B
:10094000EE0FFF1FEE54FD4FA591B491EC91AE2236
:1009500031E020E009F430E0832F922FC816D90649
:1009600009F4AECFB7FC0FC0882031F0000F111F83
:100970008EE1891508F401608FE1B81609F4C6CF3D
:100980008FE3B816A1F08FE4B812C1CF6F2D77278F
:10099000CD2EDD248C2F8E0D860F8C0D8017110629
:1009A00051F082E090E095CF90E080E0D7CFE80171
:1009B00010E000E0ACCF80918C0590918D050197FF
:1009C000F1F490E080E00E949B2A60938705709389
:1009D00088058093890590938A05B60190E080E0B0
:1009E0000E949B2A609383057093840580938505FC
:1009F0009093860510928F0510928E056ECFB701E9
:100A000090E080E00E949B2A2DEC3CEC4CEC5DE3F6
:100A10000E94FC2A6093870570938805809389055E
:100A200090938A05D7FF04C0DF77D195C195D1098E
:100A3000BE01DD0F880B990B0E949D2A2DEC3CEC2A
:100A40004CEC5DE30E94FC2ACDCF2091A202260F40
:100A50003327331F21323105ECF420915905FC0175
:100A600090E080E0243069F082E00895A091A20235
:100A70002191AC014E575D4FA40FB52FB11D2C93A2
:100A80000196861798F38091A202680F6093A202E4
:100A900080E0089581E008951092590581E08093E7
:100AA00058051092330561E082E10E94200361E065
:100AB00083E10E942003E9EBF0E080818E7F808358
:100AC00080818D7F808388E48093B80085E4809363
:100AD000BC000895CF93DF9391E090938102882327
:100AE000B9F0C091B800D091BA008091BC008A7B67
:100AF0008093BC0060E082E10E94200360E083E11B
:100B00000E9420030E944C05D093BA00C093B80005
:100B1000DF91CF910895CF92DF92EF92FF920F93E2
:100B20001F93CF93DF93D091820581E0D13208F0FB
:100B30009CC0C09181050E947F036B017C01809164
:100B4000590581116CC082E08093590581E0809342
:100B500058058FEF8093570510925605D093550591
:100B6000A1E6B5E0E5E3F5E080E0D8138DC0109292
:100B7000340580913405CC0FC82BC0933405809187
:100B80003305813009F084C0109233050E947F0341
:100B90006B017C01809134058093BB0080915B05E3
:100BA00090915C05A0915D05B0915E05892B8A2B23
:100BB0008B2BA1F00E947F0300915B0510915C05D7
:100BC00020915D0530915E056C197D098E099F09A4
:100BD000061717072807390708F442C08091BC00A0
:100BE00083FDD8CF85EC8093BC000E947F036B010E
:100BF0007C0180915905823009F44CC080915705E1
:100C00008F3F09F469C080915705803209F466C0AE
:100C100080915705803309F463C084E026C0809139
:100C20005B0590915C05A0915D05B0915E05892BF7
:100C30008A2B8B2B09F483CF0E947F0300915B05E5
:100C400010915C0520915D0530915E056C197D0960
:100C50008E099F09061717072807390708F06FCF75
:100C600080915A050E946A0585E0109260051092F5
:100C7000820510925F05DF91CF911F910F91FF9038
:100C8000EF90DF90CF9008959D9191938F5F6DCFFE
:100C900085EEA9CF80915B0590915C05A0915D05E3
:100CA000B0915E05892B8A2B8B2B09F4A2CF0E9471
:100CB0007F0300915B0510915C0520915D053091EB
:100CC0005E056C197D098E099F090617170728070D
:100CD000390708F08ECFC4CF80E0C7CF82E0C5CF00
:100CE00083E0C3CFCF92DF92EF92FF920F931F93D7
:100CF000CF93DF93D82FC62F613208F098C00E949F
:100D00007F036B017C018091590581116BC081E0EB
:100D100080935905809358059FEF90935705109243
:100D200056059C0F909355058093340580913405AA
:100D3000DD0FD82BD093340580913305813009F035
:100D400078C0109233050E947F036B017C01809173
:100D500034058093BB0080915B0590915C05A09168
:100D60005D05B0915E05892B8A2B8B2BA1F00E942B
:100D70007F0300915B0510915C0520915D0530912A
:100D80005E056C197D098E099F090617170728074C
:100D9000390708F448C08091BC0083FDD8CF85ECAA
:100DA0008093BC000E947F036B017C0180915905F8
:100DB000813009F440C0809156058C1710F4C09121
:100DC0005605E5E3F5E0A3E1B5E080E08C1355C0FE
:100DD0008C2FDF91CF911F910F91FF90EF90DF90BB
:100DE000CF90089580915B0590915C05A0915D0581
:100DF000B0915E05892B8A2B8B2B09F484CF0E943E
:100E00007F0300915B0510915C0520915D05309199
:100E10005E056C197D098E099F09061717072807BB
:100E2000390708F070CF80915A050E946A05C0E02A
:100E3000CFCF85EEB5CF80915B0590915C05A091F9
:100E40005D05B0915E05892B8A2B8B2B09F4AECF03
:100E50000E947F0300915B0510915C0520915D0568
:100E600030915E056C197D098E099F0906171707D9
:100E70002807390708F09ACFD6CF91919D938F5FBD
:100E8000A5CF0895E091D3028091D202E81730F403
:100E9000F0E0ED5EFA4F808190E008958FEF9FEFD4
:100EA00008959091D3028091D2022FEF3FEF9817CF
:100EB00048F4E92FF0E0ED5EFA4F208130E09F5FCB
:100EC0009093D302C9010895CF92DF92EF92FF92DF
:100ED0000F931F93CF93DF937C01CB018A01209165
:100EE0005F05222389F0EB016B01C40ED51ECC15E2
:100EF000DD0569F06991D701ED91FC910190F081D8
:100F0000E02DC7010995F3CF642F0E942505C80184
:100F1000DF91CF911F910F91FF90EF90DF90CF90D5
:100F20000895CF93DF931F92CDB7DEB769832091E9
:100F30005F052223F9F020918205203258F021E04C
:100F400030E0FC013383228390E080E00F90DF915A
:100F5000CF91089580916005E82FF0E0EF59FA4FA6
:100F6000998190838F5F809360058093820581E0F3
:100F700090E0ECCF61E0CE0101960E942505F7CF0D
:100F8000682F81E396E00C949107FC01248131E005
:100F900030935F05209381051092600510928205C1
:100FA0008385862B90E00E94C0070C948B0590E00F
:100FB00080E008958FB7F89480917B028FBF0895E9
:100FC00061E0FC0184810E94200380917A028111FA
:100FD00010927A0208958EBD00000DB407FEFDCF79
:100FE0008EB508958FEF0C94EB070F931F93CF935B
:100FF000DF93EC010E94D6038B010E94F2078F3F22
:1010000069F00E94D603601B710B6C177D07A8F373
:1010100080E0DF91CF911F910F91089581E0F9CF8A
:101020008CBD9DBD0895CF93DF93EC0180917A0232
:10103000811109C081E080937A0280913D069091F0
:101040003E060E94100860E08C81DF91CF910C94E5
:1010500020038F929F92AF92BF92FF920F931F93A4
:10106000CF93DF93EC01F62E49015A018E8188233C
:1010700089F08F8198859C012F5F3F4F38872F83A0
:101080008230924018F40E94F207F3CFCE010E9402
:10109000E0071E82CE010E9413088CE291E00E94BC
:1010A000F5078F2D80640E94EB0708E110E0D50161
:1010B000C401002E04C0B695A795979587950A940C
:1010C000D2F70E94EB0708501109083F8FEF18076D
:1010D00071F785E9FF2021F028E087E8F2128FEF11
:1010E0000E94EB0710E00E94F2078A8787FF04C086
:1010F0001F3F11F01F5FF7CFDF91CF911F910F912D
:10110000FF90BF90AF909F908F900895AF92BF9245
:10111000CF92DF92EF92FF920F931F93CF93DF93C3
:10112000EC016901C801820F931F8130924050F594
:101130008E81882379F088819981AA81BB81841767
:101140009507A607B70731F48F819885C816D90689
:1011500008F042C0488359836A837B838B85833040
:1011600039F089E0440F551F661F771F8A95D1F724
:101170009A01AB0161E1CE010E942908882389F020
:1011800083E08D83CE010E94E00780E0DF91CF9164
:101190001F910F91FF90EF90DF90CF90BF90AF9095
:1011A00008950E94D6035B010E94F2078A878F3F51
:1011B00069F40E94D6036A197B096D327140A0F36D
:1011C0008FE08D83CE010E94E007DCCF8E3F89F453
:1011D00018861F8281E08E838F8198858C159D05EE
:1011E00050F40E94F2078F819885019698878F832B
:1011F000F3CF8DE0E6CF6701E00EF11E0E94F2070B
:10120000F60181936F01EE15FF05C1F78F81988577
:10121000080F191F18870F838985882319F0011576
:101220001240A0F08E81882389F08F8198859C01DF
:101230002F5F3F4F38872F838230924018F40E94EF
:10124000F207F3CFCE010E94E0071E8281E09ECF1D
:10125000CF92DF92EF92FF920F93CF93DF93EC0147
:10126000690182E1411551056105710599F08B8590
:10127000833039F089E0440F551F661F771F8A9528
:10128000D1F79A01AB0168E1CE010E9429088823B9
:1012900019F084E08D832DC08EEF0E94EB0776015C
:1012A0008EEFD81AF70181917F010E94EB07EC14B1
:1012B000FD04C1F78FEF0E94EB078FEF0E94EB0751
:1012C0000E94F2078A878F71853071F4011116C070
:1012D000CE010E94E00781E0DF91CF910F91FF9056
:1012E000EF90DF90CF90089581E18D83CE010E9431
:1012F000E007CE010E94E00780E0EECF88E592E0B3
:101300000E94F507811102C085E1C4CF20E030E0E2
:10131000A9016DE0CE010E942908882311F084E123
:10132000B9CF0E94F2078111FACFD2CF0F9340912B
:101330007D0250917E0260917F0270918002411582
:1013400051056105710599F0082F23E133E0809183
:10135000F4029091F5020E942809882349F0109226
:101360007D0210927E0210927F021092800281E034
:101370000F9108950F93CF93C82F80917C02811114
:1013800005C0C1E08C2FCF910F91089540910001CD
:101390005091010160910201709103010C2F23E132
:1013A00033E08091F4029091F5020E9428098111A6
:1013B00002C0C0E0E7CFCC2321F381E00E94960970
:1013C0008823B9F310927C02DDCF8F929F92AF9267
:1013D000BF92EF92FF920F931F93CF934B015C014B
:1013E000C42F8091000190910101A0910201B09160
:1013F000030188159905AA05BB0551F181E00E94FA
:10140000BA0981110BC080E0CF911F910F91FF901D
:10141000EF90BF90AF909F908F90089583E1E82E5A
:1014200083E0F82E00E012E030E020E0B501A401F6
:101430008091F4029091F5020E948608882319F3A6
:101440008092000190920101A0920201B0920301EA
:1014500040917C024C2B40937C0281E0D5CFCF930E
:10146000DF93EC016E857F858889998941E00E9430
:10147000E509882351F08A8920E2829FC001112466
:101480008D5E9C4FDF91CF91089590E080E0FACF80
:101490008F929F92AF92BF92CF92DF92EF92FF9284
:1014A000CF932FE336E03093F5022093F4028823A4
:1014B00009F46DC040E060E070E0CB010E94E509F6
:1014C00081110BC080E0CF91FF90EF90DF90CF9023
:1014D000BF90AF909F908F9008958091D1048F77A7
:1014E00089F78091DD049091DE04A091DF04B09132
:1014F000E00484369105A105B10520F3C090D9041C
:10150000D090DA04E090DB04F090DC04C114D10444
:10151000E104F104B9F240E0C701B6010E94E50917
:10152000882381F280911E0390911F0381159240C0
:1015300049F6A0912303AA2329F260912103709117
:1015400022036115710509F4BDCF209120032223E8
:1015500009F4B8CFA0935D0620934F0690E080E099
:1015600030E0E1E0F0E0C82FAF01082E02C0440FE8
:10157000551F0A94E2F72417350769F041E0480F38
:1015800001968930910579F7409358069BCFC12C7D
:10159000D12C7601C0CF8093580620912903309139
:1015A0002A0350E040E02115310541F42091370332
:1015B000309138034091390350913A0320935006FB
:1015C00030935106409352065093530646015701FB
:1015D000860E971EA11CB11C80925E0690925F063B
:1015E000A0926006B0926106E0912403F091250379
:1015F000F0936406E0936306B0E00E94BA2BDC012E
:10160000CB01880D991DAA1DBB1D80936506909383
:101610006606A0936706B093680625E0EE0FFF1FED
:101620002A95E1F7E150FE4FEF2FFF27E6958E0F49
:101630009F1FA11DB11D8093590690935A06A09338
:101640005B06B0935C068090260390902703B12C34
:10165000A12C8114910441F48090330390903403C1
:10166000A0903503B0903603C81AD90AEA0AFB0ADB
:10167000C80CD91CEA1CFB1C04C0F694E794D79450
:10168000C794CA95D2F7C0925406D0925506E092FC
:101690005606F092570685EFC8168FE0D806E1048B
:1016A000F10428F48CE08093620681E00CCF80E1A5
:1016B00025EFC2162FEFD206E104F104A0F38091CA
:1016C0003F0390914003A0914103B0914203809366
:1016D000650690936606A0936706B093680680E25D
:1016E000E2CF4F925F926F927F928F929F92AF92D2
:1016F000BF92CF92DF92EF92FF920F931F93CF93FF
:10170000DF93EC01423051056105710590F480E0F2
:10171000DF91CF911F910F91FF90EF90DF90CF90CD
:10172000BF90AF909F908F907F906F905F904F9001
:10173000089589859A85AB85BC850196A11DB11D4B
:1017400084179507A607B70710F3CB88DC88ED88C8
:10175000FE888F89803109F042C0BB27A72F962FC2
:10176000852F480159012A013B01C80ED91EEA1EE6
:10177000FB1E8091000190910101A0910201B091A6
:101780000301C816D906EA06FB0699F58F89803150
:10179000C1F5B301A201552766277727440F551FCE
:1017A0004D5E5C4FFA019182808280917C02816063
:1017B00080937C028A89823080F08D819E81AF8106
:1017C000B8858C0D9D1DAE1DBF1D80937D0290932D
:1017D0007E02A0937F02B093800281E099CFDB016B
:1017E000CA01E7E0B695A79597958795EA95D1F751
:1017F000B8CF40E0C701B6010E94E5098111C6CF0C
:1018000086CFB301A2014F77552766277727440F6C
:10181000551F440F551F4D5E5C4FFA018082918227
:10182000A282B382C2CF8F929F92AF92BF92CF9289
:10183000DF92EF92FF920F931F93CF93DF93FC0100
:1018400081859285A385B4850196A11DB11D84175C
:101850009507A607B70770F480E0DF91CF911F913D
:101860000F91FF90EF90DF90CF90BF90AF909F903F
:101870008F90089583889488A588B6888789803159
:1018800089F5BB27A72F962F852FE9016A017B01D8
:101890008F01BC01CD01680D791D8A1D9B1D8090B3
:1018A000000190900101A0900201B0900301861602
:1018B0009706A806B90601F5F8018789803111F568
:1018C000DD24EE24FF24F601EE0FFF1FED5EFC4F3A
:1018D00080819181B0E0A0E088839983AA83BB8353
:1018E00081E0BBCFDB01CA01C7E0B695A79597950C
:1018F0008795CA95D1F7C9CF40E00E94E5098111CB
:10190000DBCFAACFE894C7F8DD24EE24FF24F6014C
:10191000EE0FFF1FEE0FFF1FED5EFC4F80819181E8
:10192000A281B381BF70D8CF4F925F926F927F92A6
:10193000AF92BF92CF92DF92EF92FF920F931F93DD
:10194000CF93DF9300D000D0CDB7DEB78C014983B1
:101950005A836B837C835901C12CD12C7601412C95
:1019600082E0582E612C712C49815A816B817C81D7
:101970009E012F5F3F4FC8010E94130C882339F14D
:10198000F8018585A301920104C0220F331F441F73
:10199000551F8A95D2F7DA01C901C80ED91EEA1E71
:1019A000FB1E49815A816B817C818789803111F1CD
:1019B00088EF9FEFAFEFBFE0481759076A077B0733
:1019C00098F2F501C082D182E282F38281E00F9029
:1019D0000F900F900F90DF91CF911F910F91FF907B
:1019E000EF90DF90CF90BF90AF907F906F905F901F
:1019F0004F90089588EF9FEFA0E0B0E0DDCFCF9348
:101A0000DF93FC012581222321F080E0DF91CF913B
:101A10000895EC0180916206803159F582E085835A
:101A2000178A108E118E128E809163069091640633
:101A3000B0E0A0E025E0880F991FAA1FBB1F2A95E0
:101A4000D1F7838B948BA58BB68B8BE496E09C8F20
:101A50008B8F81E08C831E821F82188619861A86DE
:101A60001B861C861D861E861F86188A198A1A8A5E
:101A7000CDCF803251F683E0858340916506509149
:101A800066066091670670916806478B508F618F7C
:101A9000728F9F012D5E3F4F8BE496E00E94940C65
:101AA0008111D3CFB2CF8F929F92AF92BF92CF923C
:101AB000DF92EF92FF920F931F93CF93DF93EC018E
:101AC0008D8181110EC080E0DF91CF911F910F9128
:101AD000FF90EF90DF90CF90BF90AF909F908F904E
:101AE00008950B891C892D893E890417150726073F
:101AF000370748F34A015B01823031F48A869B86BE
:101B0000AC86BD8681E0E0CF81149104A104B104CC
:101B100049F41E821F82188619861A861B861C8627
:101B20001D86F0CF0A851B852C853D85EB8DFC8DB0
:101B3000858590E00996B901A801415051096109D4
:101B40007109082E04C076956795579547950A94B4
:101B5000D2F775016401E1E0CE1AD108E108F1087D
:101B600004C0F694E794D794C7948A95D2F7C41624
:101B7000D506E606F70620F0012B022B032B11F504
:101B80008F89988DA98DBA8D8E839F83A887B987F9
:101B90008E010A5F1F4FC114D104E104F10409F45E
:101BA000ADCF4E815F816885798598018B8D9C8D45
:101BB0000E94130C91E0C91AD108E108F1088111C3
:101BC000EACF81CFC41AD50AE60AF70AE1CF3F92DD
:101BD0004F925F926F927F928F929F92AF92BF923D
:101BE000CF92DF92EF92FF920F931F93CF93DF93E9
:101BF000CDB7DEB72C970FB6F894DEBF0FBECDBFC2
:101C00005C01DC015B968D909C905C9716964D90E4
:101C10005D906D907C90199741145104610471049A
:101C200009F468C0BFEF4B1A5B0A6B0A7B0A312CC0
:101C3000F40181859285A385B4859C01AD012F5F58
:101C40003F4F4F4F5F4F29873A874B875C87730120
:101C500062011D821E821F821886F4018185928591
:101C6000A385B4852D813E814F815885281739077A
:101C70004A075B0708F056C089859A85AB85BC8505
:101C80008C159D05AE05BF0550F482E0C82ED12C01
:101C9000E12CF12C92E0492E512C612C712C9E01EB
:101CA0002F5F3F4FB701A601C4010E94130C882388
:101CB000C9F189819A81AB81BC81892B8A2B8B2BBD
:101CC00009F1260137019FEF491A590A690A790A71
:101CD0002D813E814F8158852F5F3F4F4F4F5F4F82
:101CE0002D833E834F8358873FEFC31AD30AE30AFD
:101CF000F30AB3CFF40140805180628073803324B3
:101D0000339496CFC414D504E604F70409F70FEF13
:101D10001FEF2FEF3FE0B701A601C4010E94710B36
:101D2000811119C080E02C960FB6F894DEBF0FBE6B
:101D3000CDBFDF91CF911F910F91FF90EF90DF907A
:101D4000CF90BF90AF909F908F907F906F905F905B
:101D50004F903F900895D50116964D915D916D91EC
:101D60007C911997411551056105710539F097016D
:101D70008601C4010E94710B8823A1F2D501169639
:101D8000CD92DD92ED92FC921997332051F0D7015C
:101D9000C6010196A11DB11DF40180839183A28328
:101DA000B383F5018789908DA18DB28D892B8A2B04
:101DB0008B2B39F48481C78AD08EE18EF28E8068B5
:101DC0008483F50184818062848381E0ACCF1F939A
:101DD000CF93DF93FC012581222371F1162FEC01B3
:101DE000848187FF1EC0CF010E942F0AFC01892B2E
:101DF00019F18D81823040F48B899C89AD89BE892F
:101E0000848F958FA68FB78F8F89988D938F828FB0
:101E10008F89988DA98DBA8DB58BA48B8C818F7786
:101E20008C83111103C08C818F7E8C83812FDF9175
:101E3000CF911F910C94BA0980E0DF91CF911F914F
:101E40000895FF920F931F93CF93DF93EC018D8141
:101E5000813041F090E080E0DF91CF911F910F91B0
:101E6000FF9008958C8181FFF5CF82FD1BC000910A
:101E7000F4021091F502C8010E9413080E94F207B3
:101E8000F82EC8010E94E0078FEFF812E3CF8C8193
:101E900085FF1BC060E0CE010E94E70E8C818F7D24
:101EA0008C83D8CF4B895C896D897E898A859B8597
:101EB000AC85BD8584179507A607B707C1F2CE018B
:101EC0000E94530D8111D3CFC5CF40917D02509117
:101ED0007E0260917F0270918002452B462B472B3A
:101EE00021F080E00E949609B5CF80618C832A851D
:101EF0003B85317080E092E0821B930BADCFCF9396
:101F0000DF93EC0161E00E94E70E882311F01D824F
:101F100081E0DF91CF910895CF92DF92EF92FF920F
:101F20001F93CF93DF9380916E06882321F089E67B
:101F300096E00E947F0F10924A0610924806109277
:101F40004506109244068AE0809343060E94D60319
:101F5000EB0161E0809143060E944E0361E08091B5
:101F600043060E9420031FB7F8948091F302811169
:101F700027C0E6ECF2E08491EAEDF2E09491E82FDC
:101F8000F0E0EE0FFF1FEC56FD4FA591B491EC91E0
:101F9000E92321F461E08AE00E94200361E08AE005
:101FA0000E944E038CB580618CBD8CB580648CBD65
:101FB00061E08DE00E944E0361E08BE00E944E03E1
:101FC0008091F3028F5F8093F3021FBF82E58093BD
:101FD0003D0610923E0680913D0690913E060E947D
:101FE00010081AE08FEF0E94EB071150D9F78FE32A
:101FF00096E00E94130820E030E0A90160E08FE342
:1020000096E00E942908182F80934906813081F0BC
:102010000E94D6036C1B7D0B613D774060F381E02D
:10202000809344068FE396E00E94E00790E078C03A
:102030002AEA31E040E050E068E08FE396E00E9459
:10204000290882FF2AC010934A0680914A06C12CB3
:10205000D12C7601823029F4C12CD12CE12C80E4E2
:10206000F82E20E030E0A90167E38FE396E00E94BC
:102070002908A701960169E28FE396E00E942908EA
:10208000809349068823C1F00E94D6036C1B7D0B08
:10209000613D774030F388E0C3CF14E00E94F2073F
:1020A000809349061150D1F78A3A11F082E0B8CFF7
:1020B00082E080934A06C9CF80914A068230D1F4EB
:1020C00020E030E0A9016AE38FE396E00E9429084E
:1020D000882311F086E0A4CF0E94F207807C803C28
:1020E00019F483E080934A060E94F2070E94F207E7
:1020F0000E94F2078FE396E00E94E00780E580935C
:102100003D0610923E0681E00E94480A882389F02D
:1021100089E696E00E94FF0C91E0882309F486CFBF
:10212000892FDF91CF911F91FF90EF90DF90CF909B
:10213000089580E00E94480A882309F477CFE8CF09
:102140008F929F92AF92BF92CF92DF92EF92FF92C7
:10215000CF93DF93EC010E94E70D81110CC080E06A
:10216000DF91CF91FF90EF90DF90CF90BF90AF9035
:102170009F908F900895EB8DFC8DCE80DF80E8845A
:10218000F98482E0C81AD108E108F108858504C005
:10219000CC0CDD1CEE1CFF1C8A95D2F7868597853A
:1021A000A089B189C80ED91EEA1EFB1E8481460192
:1021B0005701880E911CA11CB11CC814D904EA0453
:1021C000FB04F9F081E0881A9108A108B10881E0C8
:1021D0000E94BA09882319F2E3E1F3E0119285E045
:1021E000E331F807D9F78092000190920101A092A3
:1021F0000201B092030180917C02816080937C0295
:10220000DCCFEB8DFC8D258580E092E0A0E0B0E096
:1022100004C0880F991FAA1FBB1F2A95D2F74B89AC
:102220005C896D897E89840F951FA61FB71F8B8BD4
:102230009C8BAD8BBE8B81E093CF2F923F924F92C0
:102240005F926F927F928F929F92AF92BF92CF9246
:10225000DF92EF92FF920F931F93CF93DF9300D003
:1022600000D01F92CDB7DEB77C015B01342E5D83B9
:10227000DC0115968C911597813009F0CEC014962B
:102280002C9021FECAC022FCB4C0C32CDD80229455
:102290007FE027222094B22DB1702B2ED7011A9601
:1022A0004D915D916D917C911D97C114D10409F4FC
:1022B00028C15B968D919C915C97FC0174807A9407
:1022C0008A019B0169E036952795179507956A95D0
:1022D000D1F770228A011170711020C0011511050B
:1022E000E9F416964D915D916D917C911997411588
:1022F00051056105710509F099C057968D919D9121
:102300000D90BC91A02D0097A105B10509F0B0C0BA
:10231000C7010E94E70D882309F47FC080E092E0A6
:10232000801B910B46018C159D0508F44C01D701CB
:102330005B964D915C915C9716968D919D910D9059
:10234000BC91A02D0297A109B109FA01258504C00D
:10235000880F991FAA1FBB1F2A95D2F7468557855C
:1023600060897189840F951FA61FB71F9C01AD015D
:10237000270D311D411D511D29013A01811432E003
:10238000930609F07BC08091000190910101A0911A
:102390000201B091030184159505A605B70559F40E
:1023A0008FEF9FEFDC018093000190930101A093D8
:1023B0000201B0930301022D9501B301A2018091A6
:1023C000F4029091F5020E942809882331F19EEFD2
:1023D000B91AC818D908F70182859385A485B585EF
:1023E000880D991DA11DB11D82879387A487B5878C
:1023F00055CFF7014389548965897689828593850C
:10240000A485B585481759076A077B0709F43DCFAE
:10241000C7010E94530D811138CF81E090E0D701B0
:1024200013969C938E93129780E007C09E012F5FB6
:102430003F4F0E94130C811102C090E079C0898146
:102440009A81AB81BC81F701238D348DF9012789F5
:1024500048EF5FEF60E070E0203121F048EF5FEF80
:102460006FEF7FE084179507A607B70708F050CFF6
:10247000F70186839783A087B18750CF0115110597
:1024800099F5D7011A964D915D916D917C911D97AB
:1024900053968D919D910D90BC91A02D4817590791
:1024A0006A077B0708F181E00E94BA09882309F4D2
:1024B000B4CF4092000150920101609202017092EB
:1024C000030180917C02816080937C02C8018D5E53
:1024D0009C4FD5019C01280D391DFC012E173F078B
:1024E00059F04D914193FACF41E0C301B2010E94EE
:1024F000E5098111EBCF91CF281B390BA20EB31E3A
:1025000068CFF70183899489A589B68984179507CF
:10251000A607B70738F48481438B548B658B768B81
:1025200080688483F701848183FD1AC0832D9D8197
:102530000F900F900F900F900F90DF91CF911F9100
:102540000F91FF90EF90DF90CF90BF90AF909F9052
:102550008F907F906F905F904F903F902F90089555
:1025600061E0C7010E94E70E882309F456CFDECF51
:10257000CF93DF931F92CDB7DEB7698341E050E080
:10258000BE016F5F7F4F0E941D110F90DF91CF91B1
:102590000895FC01DB0112968D919C911397938312
:1025A00082838EE791E09183808314968C911497B7
:1025B000848315968C911597858316964D915D9120
:1025C0006D917C91199746835783608771871A961E
:1025D0004D915D916D917C911D97428753876487E2
:1025E00075871E964D915D916D917C9151974687AF
:1025F0005787608B718B52968C915297828B539632
:102600004D915D916D917C915697438B548B658B69
:10261000768B57964D915D916D917C915A97478B32
:10262000508F618F728F5B968D919C91948F838F69
:1026300008950895FC01818D928D009719F061E055
:102640000C94E70E0895DC015996ED91FC913097BA
:10265000B9F083899489A589B689428553856485B3
:102660007585841B950BA60BB70B811520E8920787
:10267000A105B10538F08FEF9FE7A0E0B0E0089525
:1026800090E080E00895DC0159968D919C9100972F
:1026900039F0DC01ED91FC910480F581E02D099485
:1026A00090E080E00895CF93DF93EC01E98DFA8DFF
:1026B000309749F481E090E09B838A8390E080E04A
:1026C000DF91CF91089513821282898D9A8D0E9495
:1026D0001D11E98DFA8D22813381232B59F7F0CF1B
:1026E000CF93DF931F92CDB7DEB76983DC01ED9105
:1026F000FC910280F381E02D41E050E0BE016F5F6C
:102700007F4F09950F90DF91CF9108952F923F92BF
:102710004F925F926F927F928F929F92AF92BF92F1
:10272000CF92DF92EF92FF920F931F93CF93DF939D
:1027300000D01F92CDB7DEB7FC018581811118C092
:102740008FEF9FEF0F900F900F90DF91CF911F9120
:102750000F91FF90EF90DF90CF90BF90AF909F9040
:102760008F907F906F905F904F903F902F90089543
:10277000848180FFE5CF4389548965897689828584
:102780009385A485B585312C212C481759076A07F4
:102790007B0719F022242394312C6F012101CE01F3
:1027A00001963C01DF011696BB83AA8341145104B4
:1027B00009F4C5C0F60142855385648575854A01D3
:1027C000F1E09F22D6015B968D919C915C978A01E6
:1027D0009B01E9E03695279517950795EA95D1F77E
:1027E0001596EC91E230E9F5FC01628D738D848DD4
:1027F000958D600F711F821F931FA12C22E0B22EB6
:10280000A818B9084A145B0408F45201F60124819F
:1028100026FD04C0A114F2E0BF0671F4009100018E
:102820001091010120910201309103010617170751
:102830002807390709F05EC040E00E94E5098823B7
:1028400009F47ECFC4018D5E9C4FD3019C012A0DFB
:102850003B1DFC012E173F0709F46CC041914D93BD
:10286000F9CFDC011496BC90BA94B0228114910483
:1028700079F4B1100DC0452B462B472B69F5F601B5
:102880008789908DA18DB28D86839783A087B1872C
:10289000D6015B96ED91FC915C9716966D917D91BA
:1028A0008D919C9119976250710981099109258533
:1028B00004C0660F771F881F991F2A95D2F70685D7
:1028C000178520893189600F711F821F931F6B0D3F
:1028D000711D811D911D91CFD60116964D915D916F
:1028E0006D917C9119972A813B810E94130C811173
:1028F000CFCF26CF730185019401AB01BC0180913C
:10290000F4029091F5020E948608882309F418CFFA
:102910006A0C7B1CF60182859385A485B5858A0D9A
:102920009B1DA11DB11D82879387A487B5874A1877
:102930005B083CCF281B390B620E731EEBCF2A9429
:10294000232809F0FDCE898190E0FCCEFC01818D29
:10295000928D009711F00C9486138FEF9FEF0895DE
:102960000F931F93CF93DF93EC01898D9A8D10E025
:1029700000E0009799F00E9486138C010F3F10072A
:1029800069F0898D9A8DFC01428553856485758532
:1029900041505109610971090E94530DC801DF912D
:1029A000CF911F910F910895DC012C911196ED911B
:1029B000FC91F8948181822B81839281322F309512
:1029C0009323928387E090E00197F1F7818183233D
:1029D000818383E290E00197F1F790817894EFECA6
:1029E000F0E03197F1F7922381E009F480E0089557
:1029F000FC0190810180F281E02D292F209560FF5C
:102A000014C0F8948281822382838181892B8183FF
:102A1000A3E2B0E01197F1F78281982B928378942A
:102A200087ED90E00197F1F70895F8948281822371
:102A300082838181892B8183AFEFB0E01197F1F719
:102A40008281982B928378948FE090E0EBCFDF9295
:102A5000EF92FF920F931F93CF93DF93EC01D62E4B
:102A6000E42E08E010E0FF24F39461E08D2D8F2127
:102A700009F460E0CE010E94F814FF0C0150110926
:102A8000A1F7E11010C0F894E981FA819181888161
:102A9000809589238183E981FA819281888180955B
:102AA000892382837894DF91CF911F910F91FF90BA
:102AB000EF90DF900895EF92FF920F931F93CF93C3
:102AC000DF938C017B0140E065E50E942715E7015B
:102AD00088E0E80EF11C699140E0C8010E942715CA
:102AE000CE15DF05C1F7DF91CF911F910F91FF90B8
:102AF000EF900895FC0190810180F281E02DF8941F
:102B00008181292F20958223818378943DE743E0BA
:102B100050E0315029F1DA011197F1F780818923D2
:102B2000C1F3F8948281822382838181892B8183FE
:102B30007894ABE7B7E01197F1F7F894818182239D
:102B40008183A3E1B1E01197F1F78081982381E0BF
:102B500009F080E07894E3E6F6E03197F1F7089524
:102B600080E008950F931F93CF938C01C62F80911F
:102B70009406909195060E947A158823A1F0B801D9
:102B800080919406909195060E945B1540E06C2F11
:102B900080919406909195060E94271581E0CF912F
:102BA0001F910F91089580E0FACFEF92FF920F935B
:102BB0001F93CF93DF938091970681111CC064EB24
:102BC0008CE191E00E94B215E0909406F090950699
:102BD00008E010E0C0E0D1E0C7010E94D4148111E8
:102BE000CD2BDD0F01501109B9F781E0C11101C0F2
:102BF00080E08093980680919406909195060E94BB
:102C00007A15882329F16CE171E080919406909106
:102C100095060E945B154091980681E0482764E480
:102C200080919406909195060E9427150E94D603E4
:102C30006093990670939A0680939B0690939C06E6
:102C400081E0DF91CF911F910F91FF90EF90089558
:102C500080E0F7CF6F927F928F929F92AF92BF9258
:102C6000CF92DF92EF92FF920F931F93CF93DF9358
:102C7000CDB7DEB76D970FB6F894DEBF0FBECDBFF0
:102C80000E94E2038091830590918405A0918505BF
:102C9000B09186058093E3029093E402A093E5024D
:102CA000B093E6020E94E203809187059091880527
:102CB000A0918905B0918A058093DF029093E0028C
:102CC000A093E102B093E20280E1EAE2F1E0DE01EA
:102CD000119601900D928A95E1F70E94D60300911A
:102CE000990610919A0620919B0630919C066B01E3
:102CF0007C01C01AD10AE20AF30AE0919606E95073
:102D0000FF0BEE0FFF1FEE0FFF1F21E030E02C0F37
:102D10003D1FE20FF31F80809180A280B3808091DD
:102D200098068823A1F080919406909195060E94C0
:102D3000D414882361F06EEB8CE191E00E94B2150F
:102D4000811127C063E373E988E893EC8FC0C8144E
:102D5000D904EA04FB0478F76091DB027091DC028D
:102D60008091DD029091DE026D960FB6F894DEBF81
:102D70000FBECDBFDF91CF911F910F91FF90EF90CC
:102D8000DF90CF90BF90AF909F908F907F906F908B
:102D9000089580909406909095068E010F5E1F4FC7
:102DA0007E013AE1E30EF11C680138E0632E712CDC
:102DB000B12CAA24A394C4010E94D4148111BA286E
:102DC000AA0C81E0681A7108B1F7D601BD926D01B5
:102DD000AE15BF0551F799E080E0915049F0D80158
:102DE000ED918D01E827F0E0E857FE4F8491F5CF93
:102DF000998D9813A7CF80E1EAE3F1E0DE01119607
:102E000001900D928A95E1F780914A0190914B01D2
:102E1000A0914C01B0914D018A8F9B8FAC8FBD8FDB
:102E2000009196060950110BF701E00FF11F808108
:102E300069897A8902C0759567958A95E2F7072EA8
:102E4000000C880B990B0E949D2AF801EE0FFF1FC2
:102E5000EE0FFF1F21E030E02C0F3D1FE20FF31FAC
:102E600020813181428153810E94FC2A6093DB02E0
:102E70007093DC028093DD029093DE020E94D515F0
:102E80006BCFFB0101900020E9F73197AF01461BA2
:102E9000570BDC01ED91FC910280F381E02D099448
:102EA000CF93DF93FC0144815581608171818BEA6E
:102EB00096E00E945313EC0164EA71E08BEA96E01D
:102EC0000E9441178C0F9D1FDF91CF9108958F9223
:102ED0009F92AF92BF920F931F93CF93DF93CDB783
:102EE000DEB7A1970FB6F894DEBF0FBECDBF19A213
:102EF000423008F44AE08E010F5D1F4F842E912C62
:102F0000B12CA12CA50194010E94FC2BE62FB90144
:102F1000CA01EA3004F5E05DD801EE938D01232B60
:102F2000242B252B79F790E080E0109729F0BD0144
:102F300088E896E00E944117A1960FB6F894DEBF8C
:102F40000FBECDBFDF91CF911F910F91BF90AF907A
:102F50009F908F900895E95CDFCFBC0188E896E0F0
:102F60000C944117CF93DF93EC01888199810097EE
:102F700011F00E94072E198218821D821C821B826A
:102F80001A82DF91CF910895FC0180819181009791
:102F900011F00C94072E0895AF92BF92CF92DF925A
:102FA000EF92FF920F931F93CF93DF93CDB7DEB7CE
:102FB0006A970FB6F894DEBF0FBECDBF81E0809355
:102FC0005F0588E680938105109260051092820566
:102FD00090E080E00E94C0070E948B0567E088E6D1
:102FE0000E9472061092D3028093D202811101C016
:102FF000FFCFCE0101967C0106E010E07AE0D72EEB
:1030000081E396E003301105C9F50E9451079887C6
:103010008F8301501109F2E0EF1AF1080F3F1007FA
:1030200079F70E948B0549815A817A0190E3E91A68
:1030300098EFF90AF092E802E092E7020B81009320
:10304000E902CD80DE80C092EA028F818093EE0299
:10305000A984A092EB02BB84B092EC021D85109370
:10306000ED02C6019927E2E6F1E021E02017A0F485
:103070003491830F911D2F5F3196F8CF0E94510735
:10308000982F92959F708F709D9D800D112490E0D8
:10309000F70195878487BDCF023031F49A01237000
:1030A0003327232B09F4019697012D5C3740369581
:1030B000279536952795EDE6F1E04E9FB0014F9F9D
:1030C000700D5E9F700D1124260F371F215031099E
:1030D000280F391FA8E1B0E00E941E2C9B01AC0113
:1030E0002A0D311D411D511DACE3B0E00E94BA2BE9
:1030F0009B01AC012B0D311D411D511D0E94BA2BAE
:10310000610F711D811D911D60597A4C8249974C48
:103110006093EF027093F0028093F1029093F202B9
:103120008CE0E7EEF2E0DE011F9601900D928A95A9
:10313000E1F78CE0FE013F96AEE6B2E001900D9221
:103140008A95E1F7F092D602E092D5020093D70279
:10315000C092D802A092DA02B092D9021093D4029F
:10316000812F6A960FB6F894DEBF0FBECDBFDF91F8
:10317000CF911F910F91FF90EF90DF90CF90BF9074
:10318000AF9008950F931F93CF938C01C62F0E9489
:10319000C5076C2F6460C8010E94C5076C2F6B7F48
:1031A000C8010E94C50783EC90E00197F1F7CF9129
:1031B0001F910F9108950F931F93CF93DF938C016D
:1031C000D62FC42F607F642B0E94C21880E1D89F45
:1031D000B00111246C2BC801DF91CF911F910F9189
:1031E0000C94C218CF93DF93CDB7DEB728970FB6F4
:1031F000F894DEBF0FBECDBF98E0EEE4F1E0DE0153
:10320000119601900D929A95E1F79091910696177B
:1032100008F46FEF262F30E0220F331F41E050E01B
:103220004C0F5D1F240F351FF9016081680F606826
:1032300040E088E896E028960FB6F894DEBF0FBE0F
:10324000CDBFDF91CF910C94DB1840E061E088E8BE
:1032500096E00E94DB188BE39FE10197F1F7089558
:1032600041E00E94DB1881E090E008950F931F93E6
:10327000CF93DF938B0198E0899FB00111246064A4
:1032800040E088E896E00E94DB18E801085F1F4FE5
:10329000699188E896E00E943019C017D107C1F7FC
:1032A000DF91CF911F910F9108954F925F926F928E
:1032B0007F928F929F92AF92BF92CF92DF92EF92C6
:1032C000FF920F931F93CF936B017C01742EAC017F
:1032D0009B010E94402D67EA71E0811126C04601E2
:1032E0005701E894B7F82FEF3FEF4FE75FE7C501CD
:1032F000B4010E94402D81110CC02FEF3FEF4FE72A
:103300005FE7C501B4010E94962A6BEA71E01816C6
:1033100064F02FEF3FEF4FE75FE4C701B6010E9473
:103320003B2D1816ACF46FEA71E088E896E0CF9177
:103330001F910F91FF90EF90DF90CF90BF90AF90D3
:103340009F908F907F906F905F904F900C9441175B
:103350002FEF3FEF4FE75FECC701B6010E94962ABF
:1033600087FDE1CF20E030E0A901C701B6010E944E
:10337000962A10E000E087FF0CC041E06DE288E88B
:1033800096E00E94DB18F7FAF094F7F8F09401E069
:1033900010E0C0E060E070E080E09FE37C1641F068
:1033A00020E030E040E251E40E949A2CCF5FF6CF5B
:1033B000A70196010E942E2C4B015C010E940C2D4E
:1033C0002B013C014AE00E946717080F191FCC230C
:1033D000C9F1C301B2010E949B2A9B01AC01C50146
:1033E000B4010E942D2C4B015C0141E06EE288E8A3
:1033F00096E00E94DB180F5F1F4FC15018F120E0CC
:1034000030E040E251E4C501B4010E94FC2A2B01E6
:103410003C010E940C2D4B01B12CA12C4AE0C501AE
:10342000B4010E946717080F191FC501B4010E945B
:103430009B2A9B01AC01C301B2010E942D2C4B01C0
:103440005C01DBCFC801CF911F910F91FF90EF90EE
:10345000DF90CF90BF90AF909F908F907F906F90B4
:103460005F904F900895CF92DF92EF92FF921F935B
:10347000CF93DF93EC0180E2689FF0011124ED5EB1
:10348000FC4F9385917161F0842F827449F080E044
:10349000DF91CF911F91FF90EF90DF90CF90089533
:1034A000142F6A8B8091000190910101A09102017B
:1034B000B09103018E879F87A88BB98BC488D5886C
:1034C000F12CE12C7601DD24CC24CF8AD88EE98E34
:1034D000FA8E828D938DB0E0A0E0AC01BD014C2945
:1034E0005D296E297F294F8B588F698F7A8F83854D
:1034F0008871B1F4848D958DA68DB78D8B8B9C8B47
:10350000AD8BBE8B81E08D831F701C831E821F825A
:10351000188619861A861B861C861D8681E0B8CF00
:10352000803109F0B4CF9E012D5E3F4F8B8D9C8D75
:103530000E94940C882309F4AACF84E0E4CF0F936F
:103540001F93CF93DF93EC0188819981009759F005
:103550002A813B812617370730F081E0DF91CF9138
:103560001F910F9108958B016F5F7F4F0E94902EE6
:10357000009759F0998388831B830A832C813D81AE
:10358000232B59F7FC011082E8CF80E0E7CFEF92C0
:10359000FF920F931F93CF93DF936115710541F451
:1035A00080E0DF91CF911F910F91FF90EF900895F0
:1035B00041155105B1F07B01EC010C811D81040F17
:1035C000151FB8010E949F1A882351F32881398161
:1035D0008C819D81B701820F931F0E946E2F1D83E6
:1035E0000C8381E0DECFEF92FF920F931F93CF9376
:1035F000DF93CDB7DEB764970FB6F894DEBF0FBE8A
:10360000CDBF7C01CB01BA018E010F5F1F4F22E0BD
:1036100044E00E940C28FC0101900020E9F731975A
:10362000AF01481B590BBC01C7010E94C71A811189
:1036300003C0C7010E94B217C70164960FB6F89481
:10364000DEBF0FBECDBFDF91CF911F910F91FF90D5
:10365000EF900895EF92FF920F931F93CF93DF9314
:10366000CDB7DEB728970FB6F894DEBF0FBECDBF3B
:103670007C01CB014AE08E010F5F1F4FB8010E9411
:103680002A28F80101900020E9F73197AF01401B8B
:10369000510BB801C7010E94C71A811103C0C701AD
:1036A0000E94B217C70128960FB6F894DEBF0FBE6E
:1036B000CDBFDF91CF911F910F91FF90EF900895B3
:1036C000EF92FF920F931F93CF93DF9300D000D020
:1036D000CDB7DEB77C01862F4AE08E010F5F1F4F0A
:1036E000B80190E00E942A28F80101900020E9F733
:1036F0003197AF01401B510BB801C7010E94C71A97
:10370000811103C0C7010E94B217C7010F900F902B
:103710000F900F90DF91CF911F910F91FF90EF903D
:103720000895CF93DF93EC01FB0101900020E9F7AE
:103730003197AF01461B570B0E94C71A811103C076
:10374000CE010E94B217CE01DF91CF910895EF9282
:10375000FF920F931F93CF93DF93EC017B018A01BC
:10376000BA010E949F1A81110BC0CE010E94B217AC
:10377000CE01DF91CF911F910F91FF90EF900895AF
:103780001D830C83B701888199810E946E2FF0CF31
:10379000FB01DC0111961C921E9213961C921E9244
:1037A000129715961C921E9214978617970749F048
:1037B000608171816115710521F0448155810C94FE
:1037C000A71B089585ED8093BC0080915B059091C7
:1037D0005C05A0915D05B0915E050796A11DB11D28
:1037E00023E0B695A795979587952A95D1F72091CF
:1037F000BC0024FD03C010925905089540915B055B
:1038000050915C0560915D0570915E05452B462BDE
:10381000472B69F30097A105B10541F025E32A95EF
:10382000F1F700000197A109B109E1CF80915A0594
:103830000C946A059F92AF92BF92CF92DF92EF9263
:10384000FF920F931F93CF93DF93CDB7DEB72B97E4
:103850000FB6F894DEBF0FBECDBF7C01FC018581A1
:10386000811115C0FE013196CE010C966F0130E238
:1038700031938E179F07E1F7DA0130E087E09D91E1
:10388000B92E992329F19E3239F48A3011F480E05F
:10389000D3C038E08AE0F3CFEEE6F1E04491442370
:1038A00021F031969413FACFF2CF831780F34FEDC6
:1038B000490F4E3560F74FE9490F4A3118F440EE91
:1038C000B42EB90EF601E30FF11DB0823F5FD7CFE2
:1038D00089818032E1F2A22E8B01FB01838D948DD0
:1038E000F701948F838FFB01168217821086118651
:1038F0001286138614861586F80182859385A48521
:10390000B585438954896589768984179507A60703
:10391000B70708F04CC025E0B695A7959795879511
:103920002A95D1F7F82FFF709F2EF80185818230FC
:1039300008F4ADCFC8010E94861397FDA8CFF80107
:1039400082859385A485B5854F96A11DB11D82877B
:103950009387A487B587F0E29F9EB00111246D5E26
:103960007C4F6115710509F492CFFB01808188239A
:1039700041F0853E09F04EC0BB2029F0BB24B39432
:10398000BBCFB1100EC0F701928A809100019091D7
:103990000101A0910201B091030186879787A08B56
:1039A000B18BFB0180818111E9CFBB24B3948A2DB7
:1039B0008271823109F06BCFBB2009F44FC0C7017F
:1039C0000E942F0A009709F462CF20E2FC011192B5
:1039D0002A95E9F72BE0F601DC0101900D922A957A
:1039E000E1F721E238E2FC01318B208B40E058E026
:1039F00057874687338B228B318F208F578B468B8F
:103A000081E00E94BA09882309F441CF4A2DF701C9
:103A100062890FC04BE050E0C6010E944D2F892BF8
:103A200009F06ACF8A2D80734A2D692D803309F4FD
:103A30002ECFC7010E94331A2B960FB6F894DEBF23
:103A40000FBECDBFDF91CF911F910F91FF90EF90EF
:103A5000DF90CF90BF90AF909F900895F80185813F
:103A6000823009F414CFC8010E94A010882309F401
:103A70000ECFF701128A83E193E0A7CFEF92FF9276
:103A80000F931F93CF93DF93EC017B018A011B827D
:103A90001A8288EE93E0A0E0B0E08C839D83AE8331
:103AA000BF8386E991E0998388838DE190E00E944D
:103AB0006B2D9A8F898F009779F02DE1F701DC014A
:103AC00001900D922A95E1F74CE050E0B801CE014B
:103AD0000C960E94752F188EDF91CF911F910F9138
:103AE000FF90EF9008952F923F924F925F926F92C6
:103AF0007F928F929F92AF92BF92CF92DF92EF927E
:103B0000FF920F931F93CF93DF93CDB7DEB7C456C9
:103B1000D1090FB6F894DEBF0FBECDBF5C0119A26C
:103B200018A28EE791E09F8F8E8F1BA21C821B82B2
:103B30009A8389831E824E018EE1880E911CC401F6
:103B40000E94FF0C8E010F5F1F4F24018AEFC82EC9
:103B500082E0D82E18016FE270E0C6010E94632F48
:103B6000009709F456C0F60120812F3271F4FFEF5F
:103B7000CF1ADF0A902F812F8201492E582E942DC3
:103B8000852D2801092F182FE6CF8C198D3008F0CC
:103B90008CE0E82EF12CA701B601CE01885A9F4F88
:103BA0000E94752FE8E5F0E0EC0FFD1FEE0DFF1D04
:103BB0001082C8010E947F0F21E0AE01485A5F4F7A
:103BC000B201C8010E941A1C81111DC01EAE1DAE9B
:103BD0008EE791E09CAF8BAF21961FAE21978301BA
:103BE00006501D4FF801808181111DC0BE01655C2A
:103BF0007F4FC1010E94C91243EB51E0B101C501E1
:103C00000E943E1D2EC0CE0CDF1CC2010E947F0F01
:103C1000B6CFC6018A5F92403C01B201CE01CB967D
:103C20000E94C912DCCF19A218A28EE791E09F8FE3
:103C30008E8F1BA221968FAD219781112DC0F5018A
:103C40001382128288EE93E0A0E0B0E08483958333
:103C5000A683B78386E991E091838083128E118ECB
:103C60001486C501CC59DF4F0FB6F894DEBF0FBEE6
:103C7000CDBFDF91CF911F910F91FF90EF90DF901B
:103C8000CF90BF90AF909F908F907F906F905F90FC
:103C90004F903F902F90089527E1A801BE01655CE9
:103CA0007F4FC4010E941A1C882349F2CE01CB9693
:103CB0000E947F0F49A95AA96BA97CA9C4010E943F
:103CC000530DB401C1010E94C912A80197CF2F92D0
:103CD0003F924F925F926F927F928F929F92AF929C
:103CE000BF92CF92DF92EF92FF920F931F93CF93E9
:103CF000DF93CDB7DEB7A1970FB6F894DEBF0FBE46
:103D0000CDBF2C01662E742E122F8091F802909157
:103D1000F90201969093F9028093F80261E08BE03A
:103D20000E94F21885EB91E00E94AD17CE0101963A
:103D30001C010E94731DC1010E949D018091F80227
:103D40009091F9021D8E1C8E1F8E1E8E19A218A234
:103D50004AE0B1010E942A28F10101900020E9F710
:103D60003197AF0142195309B101CE014C960E941F
:103D7000A71BBE01645E7F4FC1010E94C81B6BEB95
:103D800071E0C1010E94911BB2010E942A1B6BEBE2
:103D900071E00E94911B662D0E94601B6BEB71E02D
:103DA0000E94911B672D0E94601B6BEB71E00E94CB
:103DB000911B612F0E94601B6BEB71E00E94911BB5
:103DC000602F0E94601B6BEB71E00E94911BB7019A
:103DD000A6010E94F31A6BEB71E00E94911BB501E2
:103DE000A4010E94F31A6BEB71E00E94911B4EA993
:103DF0005FA968AD79AD0E94F31A0E945017C10106
:103E00000E94C417CE014C960E94C4178091C4062C
:103E10009091C506009761F00E947F0F8091C406C3
:103E20009091C5060E94072E1092C5061092C406F6
:103E30006CE271E080E090E00E94A4038091F702C0
:103E40008093F602A1960FB6F894DEBF0FBECDBFE9
:103E5000DF91CF911F910F91FF90EF90DF90CF9066
:103E6000BF90AF909F908F907F906F905F904F909A
:103E70003F902F9008951F920F920FB60F9211242A
:103E80002F933F934F935F936F937F938F939F9362
:103E9000AF93BF93EF93FF9384E995E00E9468028C
:103EA000FF91EF91BF91AF919F918F917F916F9112
:103EB0005F914F913F912F910F900FBE0F901F90E8
:103EC00018951F920F920FB60F9211242F938F9374
:103ED0009F93EF93FF93E091A405F091A505808156
:103EE000E091AA05F091AB0582FD1BC09081809105
:103EF000AD058F5F8F732091AE05821741F0E09181
:103F0000AD05F0E0EC56FA4F958F8093AD05FF912B
:103F1000EF919F918F912F910F900FBE0F901F9057
:103F200018958081F4CF1F920F920FB60F92112433
:103F30002F933F938F939F93AF93BF938091C6022C
:103F40009091C702A091C802B091C9023091C502F8
:103F500023E0230F2D3758F50196A11DB11D2093A5
:103F6000C5028093C6029093C702A093C802B09383
:103F7000C9028091CA029091CB02A091CC02B0916B
:103F8000CD020196A11DB11D8093CA029093CB0270
:103F9000A093CC02B093CD02BF91AF919F918F912E
:103FA0003F912F910F900FBE0F901F90189526E80C
:103FB000230F0296A11DB11DD2CF1F920F920FB6F3
:103FC0000F9211242F933F934F935F936F937F939F
:103FD0008F939F93AF93BF93EF93FF938091B9001B
:103FE000887F803609F44AC0F0F5883209F4A7C00A
:103FF00018F5803109F49BC0B8F4882309F4F9C09E
:10400000883009F494C0FF91EF91BF91AF919F91D7
:104010008F917F916F915F914F913F912F910F9071
:104020000FBE0F901F901895883109F488C0803218
:1040300051F78093570514C0803409F49DC040F4B3
:104040008033B9F38833F9F68093570585ECB0C017
:10405000803509F485C0883509F496C0883499F60E
:104060000E94E21BD0CF883909F48CC038F588371C
:1040700029F050F4883611F0803729F683E08093D8
:1040800059051092C40257C0883809F47BC08039A2
:1040900019F0803809F0B7CF8091C402803208F05F
:1040A00071C0E091C40281E08E0F8093C4028091C0
:1040B000BB00F0E0EC55FD4F80833DC0803B39F004
:1040C000E0F4803A09F479C0883A09F09CCF84E0A2
:1040D000809359051092A3021092A202E091D0029F
:1040E000F091D10209958091A20281110FC081E067
:1040F0008093A2021092820209C0803C09F4A6CFEC
:10410000883C09F4A3CF883B09F07DCFE091A3025E
:1041100081E08E0F8093A302F0E0EE57FD4F808187
:104120008093BB009091A3028091A20229C080914C
:1041300034058093BB0085EC8093BC0064CF9091E4
:10414000560580915505981758F5E091560581E080
:104150008E0F80935605F0E0EB5CFA4F8081E9CF3B
:10416000E091560581E08E0F809356058091BB004B
:10417000F0E0EB5CFA4F80839091560580915505F5
:104180009817C8F285E8D8CFE091560581E08E0FE8
:10419000809356058091BB00F0E0EB5CFA4F808382
:1041A0008091580581115CCF81E08093330584EACA
:1041B0008093BC001092590526CF85EC8093BC00FB
:1041C000109259058091C402803230F4E091C4020B
:1041D000F0E0EC55FD4F10826091C40270E0E09178
:1041E000CE02F091CF0284EA92E009951092C402C7
:1041F0000ACF1092570534CFE4E9F5E0138212821A
:1042000088EE93E0A0E0B0E084839583A683B78333
:104210002AE531E03183208325EC30E0358724879F
:1042200024EC30E03787268720EC30E0318B208B80
:1042300021EC30E0338B228B22EC30E0358B248B69
:1042400026EC30E0378B268B118E128E138E148E57
:10425000E1E3F6E01382128284839583A683B78319
:104260002CE631E031832083EDE3F6E020E5208386
:104270001182EFE3F6E0158216821186138642E082
:1042800050E060E070E0448755876687778713A227
:1042900015A614A62EE731E033A722A717A6EBEA4E
:1042A000F6E01382128284839583A683B78386E91E
:1042B00091E091838083128E118E148660E085E0F8
:1042C0000E944E03E5EDF2E0E491ADE9B6E0EC9337
:1042D000E1ECF2E0E491F0E0EE0FFF1FEE54FD4F51
:1042E0008591949112969C938E9311971B961C9294
:1042F0001B971D961C921D971C961C921C971A9634
:104300001C921A9719961C92199718961C92189736
:1043100017961C92179716961C92169715961C9234
:10432000159714961C92149713961C921397E4E910
:10433000F6E0B183A0831282138214821582168262
:1043400017821086E8E8F6E0138212828AE891E08C
:104350009183808387E2848380E1808782E0818704
:10436000128688E083870895CF93DF93CDB7DEB7B9
:10437000C659D1090FB6F894DEBF0FBECDBF7894F1
:1043800084B5826084BD84B5816084BD85B582605A
:1043900085BD85B5816085BD80916E00816080930B
:1043A0006E00109281008091810082608093810074
:1043B0008091810081608093810080918000816084
:1043C000809380008091B10084608093B1008091DF
:1043D000B00081608093B00080917A008460809307
:1043E0007A0080917A00826080937A0080917A00CE
:1043F000816080937A0080917A00806880937A004F
:104400001092C1001092D3021092D2021092600555
:10441000109282050E944C0588EE91E09093D102A3
:104420008093D00289EE91E09093CF028093CE02E8
:1044300010928D0680919106823018F098E090934A
:104440008D0690919206992339F0813029F480915C
:104450008D06846080938D0662E370E080E090E0DA
:104460000E94A4036091930688E896E00E94C50725
:1044700068EE73E080E090E00E94A40360E388E8C7
:1044800096E00E94C2180BE416E4C8010197F1F708
:1044900060E388E896E00E94C218C8010197F1F72E
:1044A00060E388E896E00E94C21883E592E00197F5
:1044B000F1F760E288E896E00E94C21860918D06EC
:1044C000606240E088E896E00E94DB1884E0809318
:1044D0008E0640E06CE088E896E00E94DB180E94BF
:1044E000251912E010938F0640E066E088E896E018
:1044F0000E94DB1840E062E088E896E00E94DB184A
:104500008BE39FE10197F1F70E94251964E171E0C7
:1045100080E00E9436196CE071E081E00E9436195B
:1045200064E071E082E00E94361960E080E00E9461
:10453000F2188DEB91E00E94AD1710938B0510924D
:104540008D0510928C050E94D603685B7B40810923
:1045500091096093900570939105809392059093D3
:10456000930582E090E090938D0580938C050E94E6
:10457000E20380918E0590918F058130910521F4A1
:1045800090938D0580938C058CE0809396060E9415
:10459000D6036B017C0180919406909195060E9450
:1045A0007A15811156C00E94D6036C197D098E09B7
:1045B0009F09693E73408105910568F30E94D515F6
:1045C0001092D30210926005109282050E944C0551
:1045D00088EE91E09093D1028093D00289EE91E031
:1045E0009093CF028093CE0280ED97E09093E80203
:1045F0008093E702FF24F394F092E902F092EA023A
:104600001092EB021092EC021092ED0286E0809381
:10461000EE0280E795E3ADE6B8E38093EF02909376
:10462000F002A093F102B093F202F0925F0588E6E7
:104630008093810590E080E00E94C0070E948B0576
:1046400061E088E60E9472068093D202811108C15F
:10465000FFCFE0919406F091950613861586148697
:104660001286118610861782168215821482138292
:10467000E12CD12CCC24C394009194061091950682
:10468000D8011D969C90992029F1F8011386158672
:104690001486F12CA8014D5F5F4FDE011196055F76
:1046A0001F4FCD015D01FA012191AF01FC01219362
:1046B000CF0104171507B9F7FF20D1F098E080E08B
:1046C000915009F480C0ED91E827F0E0E857FE4FE3
:1046D0008491F6CFC8010E947A15811111C0D801CA
:1046E0001B961C921B971D961C921D971C961C9244
:1046F000DE1411F0E11062CF81E0809397065ECF67
:1047000040E060EFC8010E942715812CBB24B394C0
:10471000FF24F394C8010E94D414A82EC8010E945B
:10472000D414B1E0AB1216C08130B1F5E0E4EF155E
:1047300008F0ABCFD8011B969C921B97911002C03A
:104740001D96CC92F8018381882309F49ECFFF2423
:10475000F394A0CFE82DF0E0A81214C0D8011B9666
:104760008C911B97F816B0F4AE0FBF1F13968C9167
:104770008B2191F4A12CB8E0BF1518F0D8011C963C
:10478000FC929F2CE00FF11F83819B2D9095892334
:1047900083830AC08F11EECFF801E80DF11D8381EC
:1047A0008B298383AA24A3946A2DC8010E94F8143C
:1047B000F394BB0C19F48394BB24B394B7E0B815FD
:1047C00008F0A8CFB3CF98859813F8CE89818832A6
:1047D00009F052CF6EE4C5010E94B215882309F496
:1047E000EDCE40E060E080919406909195060E94A5
:1047F000271540E060E080919406909195060E9414
:1048000027156091960669506295660F607E6F610C
:1048100040E080919406909195060E94271564EBE4
:10482000C5010E94B215809094069090950658E0BC
:10483000A52EB12C10E0C4010E94D41481111F29AF
:10484000FF0CF1E0AF1AB108B1F781E0111101C01E
:1048500080E080939806111101C0E394D3940CCFAB
:1048600081E396E00E945107182F0E948B0517FFE5
:104870009CC084ED91E00E94D401182F8FEC91E050
:104880000E94D401082F87ED91E00E94D401E82E08
:104890008AED91E00E94D401D82E8DED91E00E9426
:1048A000D401C82EF0925F05109260051092820527
:1048B00090E080E00E94C0073AE0F32E8C2D6F2D2F
:1048C0000E94452D8295807F682F690F81E396E0D5
:1048D0000E9491078D2D6F2D0E94452D8295807F1E
:1048E000682F690F81E396E00E9491078E2D6F2D4E
:1048F0000E94452D8295807F682F690F81E396E0A5
:104900000E949107212F30E02153384FE9E8F2E06F
:10491000E491E00FFF27FF1FE20FF31FC9019695F7
:10492000879596958795E80FF91FC90160E971E0B1
:104930000E94512DE60FF71FC90164E670E00E9446
:10494000512DCF01861B970B67E070E00E94512D1F
:10495000682F811101C067E081E396E00E94910712
:104960002AE0F22E802F6F2D0E94452D8295807FA8
:10497000682F690F81E396E00E94910762E081E36E
:1049800096E00E949107812F6F2D0E94452D829500
:10499000807F682F690F81E396E00E94910790E085
:1049A00080E00E94C0070E948B050E948C0F0E942D
:1049B000CC176E0128E7C20ED11C8FE0D6011D92E4
:1049C0008A95E9F78091D8021F928F938091D70240
:1049D0001F928F938091D6028F938091D5028F93EF
:1049E00080EE91E09F938F93DF92CF920E94842F6D
:1049F0000E948C0FFE01E55AFF4F138212828EE750
:104A000091E091838083158222961FAE1EAE22977D
:104A10009FAF8EAF24961FAE24970FB6F894DEBFDB
:104A20000FBECDBFF12CE12C9E2E8F2E09E616E095
:104A30003C01CE010C96CC56DF4F99838883C45934
:104A4000D04090E4292E312C412C512CF601EE0D52
:104A5000FF1D80818F3219F49FEFE91AF90AD60100
:104A6000AE0DBF1DFE01E957FF4F90E080E05F01F2
:104A70002D912F3251F0222341F03FEFE31AF30A38
:104A8000019621938C30910599F78A0D9B1DDC01CD
:104A90001C92F601EE0DFF1D80818F3219F4BFEFDD
:104AA000EB1AFB0AF601EE0DFF1D2081CA56DF4FFF
:104AB0002883C659D0401CA21BA27AA269A21EA2BA
:104AC0001C821B827A8269821E8221E0A501B801C4
:104AD000CE0101960E941A1C882309F4FBC1CE0165
:104AE00001960E947F0FCA56DF4FE881C659D04019
:104AF000EE2309F4E9C121E0A501B801892D982D23
:104B00000E941A1CB82EF6E009361F0709F478C275
:104B1000C8010E947F0FB11079C2EAEFF2E089E18B
:104B2000DF011D928A95E9F78091D4021F928F933D
:104B30008091D9021F928F938091DA021F928F93F6
:104B40008091D8021F928F938091D7021F928F93EA
:104B50008091D6028F938091D5028F938DEE91E054
:104B60009F938F93FF93EF930E94842FCE01019622
:104B70000E94731DCE0101960E949D011091D802E2
:104B80000091D702E090D502F090D6021AA219A2A5
:104B90001CA21BA21EA21DA242E150E06BE072E02B
:104BA000CE0181960E94A71BBE016F5D7F4FCE0193
:104BB00001960E94C81BB701CE0101960E942A1BD4
:104BC0006EE172E00E94911B602F0E94601B6EE1FB
:104BD00072E00E94911B612F0E94601B0E9450177F
:104BE000CE0101960E94C417CE0181960E94C4177F
:104BF0001091D4020091D902F090DA021AA219A2FF
:104C00001CA21BA21EA21DA240E150E060E272E0C5
:104C1000CE0181960E94A71BBE016F5D7F4FCE0122
:104C200001960E94C81B6F2DCE0101960E94601B49
:104C300061E372E00E94911B602F0E94601B61E3A0
:104C400072E00E94911B612F0E94601B0E9450170E
:104C5000CE0101960E94C417CE0181960E94C4170E
:104C600063E372E08BEA96E00E94411764EA71E028
:104C70008BEA96E00E9441178091C4069091C50688
:104C80000FB6F894DEBF0FBECDBF009761F00E9453
:104C90007F0F8091C4069091C5060E94072E109246
:104CA000C5061092C4066CE271E080E090E00E94BC
:104CB000A4030E942A168090DF029090E002A09048
:104CC000E102B090E202C090E302D090E402E090F2
:104CD000E502F090E6028091DE028F938091DD0282
:104CE0008F938091DC028F938091DB028F930091F0
:104CF000D9022091DA024091D8026091D7028091C6
:104D0000D5029091D6020E94671E8091D9028093AD
:104D1000F6020E9425190F900F900F900F9080E0DF
:104D2000682E80E0782E0E942A160E94CC1760E040
:104D300080E00E94F21862E088E896E00E94301954
:104D400089E692E00E94AD176091E3027091E4025F
:104D50008091E5029091E60241E00E94551960E0E1
:104D600088E896E00E9430198FE592E00E94AD1726
:104D700060E089E00E94F21861E088E896E00E9415
:104D8000301989E692E00E94AD176091DF027091C0
:104D9000E0028091E1029091E20241E00E94551907
:104DA00081E692E00E94AD1761E080E00E94F21877
:104DB00083E692E00E94AD176091DB027091DC0205
:104DC0008091DD029091DE0241E00E94551960E081
:104DD00088E896E00E94301986E692E00E94AD17BE
:104DE0006091DA026A3030F489E692E00E94AD17F1
:104DF0006091DA0270E090E080E04AE00E9467177C
:104E000081E392E00E94AD176091D9026A3030F4DC
:104E10008BE692E00E94AD176091D90270E090E0BD
:104E200080E04AE00E9467170091D9020093F702E0
:104E30008091F602202F281B330BC90137FF03C0D6
:104E40009195819591098A3011F0C29761F5809012
:104E5000DF029090E002A090E102B090E202C090E8
:104E6000E302D090E402E090E502F090E602809147
:104E7000DE028F938091DD028F938091DC028F930D
:104E80008091DB028F932091DA024091D8026091E9
:104E9000D7028091D5029091D6020E94671E0F9092
:104EA0000F900F900F906114710409F43CCF0E9491
:104EB0005402882309F437CF0E94000034CF90E0D9
:104EC00080E030E020E07DC026E00936120709F0DE
:104ED00093C023CE23E3A501B801CE0181960E94A1
:104EE0001A1C882309F483C081E08DA334E03EA31B
:104EF000CE0181960E94A010882309F478C061E059
:104F0000CE0181960E94E70E882309F470C0CE017D
:104F100081960E942F0AFC01892B09F468C080E168
:104F2000838780E2DE01119601900D928A95E1F768
:104F3000FE01329690E29193CC56DF4FA881B98161
:104F4000C459D040AE17BF07A9F7BEE2B983ECAD94
:104F5000FDAD68AD79AD8AAD9BAD62507109810937
:104F60009109258504C0660F771F881F991F2A9510
:104F7000D2F72685378540895189620F731F841FB8
:104F8000951F41E00E94E509882389F180E2FE0136
:104F90003196A3E1B3E001900D928A95E1F7EEE23C
:104FA000EA83D80115968C9115978250823008F4C7
:104FB00086CF57964D915D916D917C915A97CA011C
:104FC0009B013E8B2D8B9C8F8B8F80E2FE01319657
:104FD000A3E3B3E001900D928A95E1F72BA63CA6DE
:104FE0004DA65EA681E00E94BA0981117CCDB6E093
:104FF00009361B0709F491CDC8010E947F0F8DCDA2
:10500000882309F48ACD8E01025C1F4F902F812FD7
:10501000092D182D4C011ACDEF920F931F93CF93AA
:10502000DF93E80134E047FD34E1042E000C550B1A
:1050300057FF03C0519541955109E32E022F242FAC
:10504000AE010E944F28CE01DF91CF911F910F91A9
:10505000EF900895BB274A3031F4992322F4BDE242
:10506000909581959F4F0C943628BB27FB015527BF
:10507000AA27880F991FAA1FA41710F0A41B8395B5
:105080005051B9F7A05DAA3308F0A95DA19300972C
:1050900079F7B111B1931192CB010C94862AA9E052
:1050A000B0E0E5E5F8E20C94CB2B6A01F22EB02ECD
:1050B000102FFBE3AF2EA01608F41BE31F5F012F98
:1050C00027E0AE014F5F5F4F0E94AE29BC0189818E
:1050D000982F9970913009F43FC09BE2E1FC04C025
:1050E0009E2D9170E0FC3AC05E2D5071E82FE87063
:1050F00083FF46C084E0911101C083E0EF2DE81BDF
:105100008F1508F0E0E0D6018E2F20E2552351F1F3
:10511000992329F0D6019C93C60101966C01960152
:105120002D5F3F4FE2FE24C08EE4D6018C9391E4C4
:1051300011969C93119712968C93D9018E2F90E221
:1051400081111BC0E20FF32FF11D10828EEF9FEF34
:105150002996ECE00C94E72B9DE2C6CF90E2C4CFF9
:105160002D9381508111FCCFCE0ED11CE0E0D0CF29
:105170008EE6D6018C9391E6DBCF9D938150E0CFF4
:10518000482F447082FF3DC084E0911101C083E04C
:105190008F1510F4EF2DE81BD6018E2F20E255233A
:1051A00009F1992329F0D6019C93C60101966C015F
:1051B00096012D5F3F4FE2FE1BC089E4D6018C9320
:1051C0008EE411968C93119786E412968C93D901F4
:1051D0008E2F90E2882309F4B5CF9D938150FACFAA
:1051E0002D9381508111FCCFCE0ED11CE0E0D9CFA0
:1051F00089E6D6018C938EE611968C93119786E6FC
:10520000E4CF9B0177FF02C030E020E0A1E0B0E0F6
:10521000911102C0B0E0A0E0F9013196AE0FBF1FBE
:105220008B2C912CBB2009F461C05401EFEFAE1A16
:10523000BE0AAA0DBB1DFA161B0619F014F04F2D5D
:105240004A1B511188C0E3FC59C07601A42FB0E27B
:10525000A1114FC0C40ED11C992309F45BC040E0DA
:10526000D6011196F60190836D01552309F448C0CB
:10527000012F060F9A81582F507184FF03C091337C
:1052800009F4015010160CF047C0093008F008E08E
:10529000EEE2FE2E5B01A01AB10885019194819483
:1052A00091082F3F320729F4D601FC92F60131967E
:1052B0006F016217730794F1021713077CF5DB0186
:1052C000A21BB30BAA24A394B12CAC0EBD1EAA0D35
:1052D000BB1D11968C9121503109D60111962815CC
:1052E0003905F4F0F60180836D01DBCFB12CA12CE0
:1052F000A0CFF701B1937F01A150AACF9111B0CFF8
:10530000D601942F50E302C05D9391509111FCCFD0
:10531000C40ED11C40E0ACCF01E0BACF80E3DBCFBC
:105320006217730731F4963388F4953311F45523DB
:1053300069F0F6018083FD01842F90E2811108C09D
:10534000A40FB11D1C9290E080E002CF81E3F1CF69
:1053500091938150F3CF911183CF8ACF283008F0F9
:1053600027E03327DA01990F311D87FD9160009600
:105370006105710539F432602E5F3D9330E32A9563
:10538000E1F708959F3F30F080387105610509F01D
:105390003C5F3C5F3D93913008F08068911DDF9346
:1053A000CF931F930F93FF92EF92192F987F9695AB
:1053B000E92F96959695E90FFF27EE53FF4F992712
:1053C0003327EE24FF24A701E701059008940794F2
:1053D00028F4360FE71EF81E491F511D660F771F70
:1053E000881F991F0694A1F70590079428F4E70EEB
:1053F000F81E491F561FC11D770F881F991F661F72
:105400000694A1F70590079428F4F80E491F561F3B
:10541000C71FD11D880F991F661F771F0694A1F71C
:105420000590079420F4490F561FC71FD81F990FE6
:10543000661F771F881F0694A9F78491109517702F
:1054400041F0D695C79557954795F794E7941A95E7
:10545000C1F7E8E6F0E068941590159135916591F3
:10546000959105907FE27395E118F10A430B560B75
:10547000C90BD009C0F7E10CF11E431F561FC91F0D
:10548000D01D7EF4703311F48A95E6CFE894015074
:1054900030F0080F0AF40027021708F4202F239594
:1054A000022F7A3328F079E37D932A95E9F710C02B
:1054B0007D932A9589F60694979567953795179564
:1054C0001794E118F10A430B560BC90BD00998F059
:1054D00023957E9173957A3308F070E37C932013C3
:1054E000B8F77E9170617D9330F0839571E37D9381
:1054F00070E32A95E1F71124EF90FF900F911F912F
:10550000CF91DF91992787FD90950895DC01FC01EB
:10551000672F71917723E1F7329704C07C916D93E7
:1055200070836291AE17BF07C8F308950E94D82A0E
:1055300008F481E00895E89409C097FB3EF4909543
:105540008095709561957F4F8F4F9F4F9923A9F05C
:10555000F92F96E9BB279395F695879577956795EB
:10556000B795F111F8CFFAF4BB0F11F460FF1BC02F
:105570006F5F7F4F8F4F9F4F16C0882311F096E9C2
:1055800011C0772321F09EE8872F762F05C0662370
:1055900071F096E8862F70E060E02AF09A95660F29
:1055A000771F881FDAF7880F9695879597F90895E2
:1055B000990F0008550FAA0BE0E8FEEF1616170624
:1055C000E807F907C0F012161306E407F50798F08C
:1055D000621B730B840B950B39F40A2661F0232BA5
:1055E000242B252B21F408950A2609F4A140A69521
:1055F0008FEF811D811D08950E940F2B0C94802B2D
:105600000E94722B38F00E94792B20F0952311F024
:105610000C94692B0C946F2B11240C94B42B0E94C6
:10562000912B70F3959FC1F3950F50E0551F629F2A
:10563000F001729FBB27F00DB11D639FAA27F00DEB
:10564000B11DAA1F649F6627B00DA11D661F829F12
:105650002227B00DA11D621F739FB00DA11D621FF7
:10566000839FA00D611D221F749F3327A00D611D14
:10567000231F849F600D211D822F762F6A2F1124F6
:105680009F5750409AF0F1F088234AF0EE0FFF1F29
:10569000BB1F661F771F881F91505040A9F79E3F80
:1056A000510580F00C94692B0C94B42B5F3FE4F30C
:1056B000983ED4F3869577956795B795F795E795D6
:1056C0009F5FC1F7FE2B880F911D9695879597F9DF
:1056D000089597F99F6780E870E060E008959FEF74
:1056E00080EC089500240A94161617061806090679
:1056F000089500240A941216130614060506089548
:10570000092E0394000C11F4882352F0BB0F40F4CF
:10571000BF2B11F460FF04C06F5F7F4F8F4F9F4F0F
:10572000089557FD9058440F551F59F05F3F71F091
:105730004795880F97FB991F61F09F3F79F08795F8
:105740000895121613061406551FF2CF4695F1DF81
:1057500008C0161617061806991FF1CF8695710511
:10576000610508940895E894BB2766277727CB0145
:1057700097F908950E941E2CA59F900DB49F900D3F
:10578000A49F800D911D112408952F923F924F9256
:105790005F926F927F928F929F92AF92BF92CF92C1
:1057A000DF92EF92FF920F931F93CF93DF93CDB7CA
:1057B000DEB7CA1BDB0B0FB6F894DEBF0FBECDBF42
:1057C00009942A88398848885F846E847D848C8413
:1057D0009B84AA84B984C884DF80EE80FD800C811C
:1057E0001B81AA81B981CE0FD11D0FB6F894DEBFFF
:1057F0000FBECDBFED010895A1E21A2EAA1BBB1B5F
:10580000FD010DC0AA1FBB1FEE1FFF1FA217B3078C
:10581000E407F50720F0A21BB30BE40BF50B661FA2
:10582000771F881F991F1A9469F760957095809566
:1058300090959B01AC01BD01CF010895A29FB001DD
:10584000B39FC001A39F700D811D1124911DB29FB4
:10585000700D811D1124911D08955058BB27AA2752
:105860000E94452C0C94802B0E94722B38F00E94D1
:10587000792B20F039F49F3F19F426F40C946F2B08
:105880000EF4E095E7FB0C94692BE92F0E94912B15
:1058900058F3BA17620773078407950720F079F465
:1058A000A6F50C94B32B0EF4E0950B2EBA2FA02D79
:1058B0000B01B90190010C01CA01A0011124FF27BD
:1058C000591B99F0593F50F4503E68F11A16F040B8
:1058D000A22F232F342F4427585FF3CF46953795B7
:1058E0002795A795F0405395C9F77EF41F16BA0B7C
:1058F000620B730B840BBAF09150A1F0FF0FBB1F2A
:10590000661F771F881FC2F70EC0BA0F621F731F72
:10591000841F48F4879577956795B795F7959E3FCF
:1059200008F0B0CF9395880F08F09927EE0F979560
:10593000879508950E94AE2C0C94802B0E94792BA1
:1059400058F00E94722B40F029F45F3F29F00C942C
:10595000692B51110C94B42B0C946F2B0E94912B3A
:1059600068F39923B1F3552391F3951B550BBB278E
:10597000AA2762177307840738F09F5F5F4F220FD3
:10598000331F441FAA1FA9F335D00E2E3AF0E0E8CA
:1059900032D091505040E695001CCAF72BD0FE2F14
:1059A00029D0660F771F881FBB1F261737074807A8
:1059B000AB07B0E809F0BB0B802DBF01FF27935860
:1059C0005F4F3AF09E3F510578F00C94692B0C9490
:1059D000B42B5F3FE4F3983ED4F3869577956795B3
:1059E000B795F7959F5FC9F7880F911D9695879595
:1059F00097F90895E1E0660F771F881FBB1F6217B4
:105A000073078407BA0720F0621B730B840BBA0B71
:105A1000EE1F88F7E09508950E94992B88F09F5714
:105A200098F0B92F9927B751B0F0E1F0660F771FC2
:105A3000881F991F1AF0BA95C9F714C0B13091F0B8
:105A40000E94B32BB1E008950C94B32B672F782FED
:105A50008827B85F39F0B93FCCF38695779567957D
:105A6000B395D9F73EF490958095709561957F4FE9
:105A70008F4F9F4F08950E94D82A08F48FEF089502
:105A80000E94D82A880B990B0895991B79E004C0CD
:105A9000991F961708F0961B881F7A95C9F780956D
:105AA0000895AA1BBB1B51E107C0AA1FBB1FA61765
:105AB000B70710F0A61BB70B881F991F5A95A9F7B7
:105AC00080959095BC01CD010895EE0FFF1F0590C4
:105AD000F491E02D09940F931F93CF93DF938230BD
